{
  "contractName": "DeedToken",
  "abi": [
    {
      "inputs": [],
      "payable": true,
      "stateMutability": "payable",
      "type": "constructor"
    },
    {
      "anonymous": false,
      "inputs": [
        {
          "indexed": true,
          "internalType": "address",
          "name": "owner",
          "type": "address"
        },
        {
          "indexed": true,
          "internalType": "address",
          "name": "approved",
          "type": "address"
        },
        {
          "indexed": true,
          "internalType": "uint256",
          "name": "tokenId",
          "type": "uint256"
        }
      ],
      "name": "Approval",
      "type": "event"
    },
    {
      "anonymous": false,
      "inputs": [
        {
          "indexed": true,
          "internalType": "address",
          "name": "owner",
          "type": "address"
        },
        {
          "indexed": true,
          "internalType": "address",
          "name": "operator",
          "type": "address"
        },
        {
          "indexed": false,
          "internalType": "bool",
          "name": "approved",
          "type": "bool"
        }
      ],
      "name": "ApprovalForAll",
      "type": "event"
    },
    {
      "anonymous": false,
      "inputs": [
        {
          "indexed": false,
          "internalType": "string",
          "name": "text",
          "type": "string"
        }
      ],
      "name": "Log",
      "type": "event"
    },
    {
      "anonymous": false,
      "inputs": [
        {
          "indexed": true,
          "internalType": "address",
          "name": "from",
          "type": "address"
        },
        {
          "indexed": true,
          "internalType": "address",
          "name": "to",
          "type": "address"
        },
        {
          "indexed": true,
          "internalType": "uint256",
          "name": "tokenId",
          "type": "uint256"
        }
      ],
      "name": "Transfer",
      "type": "event"
    },
    {
      "constant": true,
      "inputs": [],
      "name": "ETHUSD",
      "outputs": [
        {
          "internalType": "uint256",
          "name": "",
          "type": "uint256"
        }
      ],
      "payable": false,
      "stateMutability": "view",
      "type": "function"
    },
    {
      "constant": true,
      "inputs": [
        {
          "internalType": "uint256",
          "name": "",
          "type": "uint256"
        }
      ],
      "name": "allTokens",
      "outputs": [
        {
          "internalType": "uint8",
          "name": "x",
          "type": "uint8"
        },
        {
          "internalType": "uint8",
          "name": "y",
          "type": "uint8"
        },
        {
          "internalType": "uint8",
          "name": "z",
          "type": "uint8"
        },
        {
          "internalType": "uint256",
          "name": "ethUSD",
          "type": "uint256"
        }
      ],
      "payable": false,
      "stateMutability": "view",
      "type": "function"
    },
    {
      "constant": true,
      "inputs": [
        {
          "internalType": "uint256",
          "name": "",
          "type": "uint256"
        }
      ],
      "name": "allValidTokenIds",
      "outputs": [
        {
          "internalType": "uint256",
          "name": "",
          "type": "uint256"
        }
      ],
      "payable": false,
      "stateMutability": "view",
      "type": "function"
    },
    {
      "constant": true,
      "inputs": [],
      "name": "owner",
      "outputs": [
        {
          "internalType": "address payable",
          "name": "",
          "type": "address"
        }
      ],
      "payable": false,
      "stateMutability": "view",
      "type": "function"
    },
    {
      "constant": false,
      "inputs": [
        {
          "internalType": "bytes32",
          "name": "_myid",
          "type": "bytes32"
        },
        {
          "internalType": "string",
          "name": "_result",
          "type": "string"
        }
      ],
      "name": "__callback",
      "outputs": [],
      "payable": false,
      "stateMutability": "nonpayable",
      "type": "function"
    },
    {
      "constant": false,
      "inputs": [
        {
          "internalType": "bytes32",
          "name": "_myid",
          "type": "bytes32"
        },
        {
          "internalType": "string",
          "name": "_result",
          "type": "string"
        },
        {
          "internalType": "bytes",
          "name": "_proof",
          "type": "bytes"
        }
      ],
      "name": "__callback",
      "outputs": [],
      "payable": false,
      "stateMutability": "nonpayable",
      "type": "function"
    },
    {
      "constant": false,
      "inputs": [],
      "name": "update",
      "outputs": [],
      "payable": true,
      "stateMutability": "payable",
      "type": "function"
    },
    {
      "constant": true,
      "inputs": [
        {
          "internalType": "bytes4",
          "name": "interfaceID",
          "type": "bytes4"
        }
      ],
      "name": "supportsInterface",
      "outputs": [
        {
          "internalType": "bool",
          "name": "",
          "type": "bool"
        }
      ],
      "payable": false,
      "stateMutability": "view",
      "type": "function"
    },
    {
      "constant": true,
      "inputs": [
        {
          "internalType": "address",
          "name": "_owner",
          "type": "address"
        }
      ],
      "name": "balanceOf",
      "outputs": [
        {
          "internalType": "uint256",
          "name": "",
          "type": "uint256"
        }
      ],
      "payable": false,
      "stateMutability": "view",
      "type": "function"
    },
    {
      "constant": true,
      "inputs": [
        {
          "internalType": "uint256",
          "name": "_tokenId",
          "type": "uint256"
        }
      ],
      "name": "ownerOf",
      "outputs": [
        {
          "internalType": "address",
          "name": "",
          "type": "address"
        }
      ],
      "payable": false,
      "stateMutability": "view",
      "type": "function"
    },
    {
      "constant": false,
      "inputs": [
        {
          "internalType": "address",
          "name": "_from",
          "type": "address"
        },
        {
          "internalType": "address",
          "name": "_to",
          "type": "address"
        },
        {
          "internalType": "uint256",
          "name": "_tokenId",
          "type": "uint256"
        }
      ],
      "name": "transferFrom",
      "outputs": [],
      "payable": false,
      "stateMutability": "nonpayable",
      "type": "function"
    },
    {
      "constant": false,
      "inputs": [
        {
          "internalType": "address",
          "name": "_from",
          "type": "address"
        },
        {
          "internalType": "address",
          "name": "_to",
          "type": "address"
        },
        {
          "internalType": "uint256",
          "name": "_tokenId",
          "type": "uint256"
        }
      ],
      "name": "safeTransferFrom",
      "outputs": [],
      "payable": false,
      "stateMutability": "nonpayable",
      "type": "function"
    },
    {
      "constant": false,
      "inputs": [
        {
          "internalType": "address",
          "name": "_from",
          "type": "address"
        },
        {
          "internalType": "address",
          "name": "_to",
          "type": "address"
        },
        {
          "internalType": "uint256",
          "name": "_tokenId",
          "type": "uint256"
        },
        {
          "internalType": "bytes",
          "name": "_data",
          "type": "bytes"
        }
      ],
      "name": "safeTransferFrom",
      "outputs": [],
      "payable": false,
      "stateMutability": "nonpayable",
      "type": "function"
    },
    {
      "constant": false,
      "inputs": [
        {
          "internalType": "address",
          "name": "_approved",
          "type": "address"
        },
        {
          "internalType": "uint256",
          "name": "_tokenId",
          "type": "uint256"
        }
      ],
      "name": "approve",
      "outputs": [],
      "payable": false,
      "stateMutability": "nonpayable",
      "type": "function"
    },
    {
      "constant": true,
      "inputs": [
        {
          "internalType": "uint256",
          "name": "_tokenId",
          "type": "uint256"
        }
      ],
      "name": "getApproved",
      "outputs": [
        {
          "internalType": "address",
          "name": "",
          "type": "address"
        }
      ],
      "payable": false,
      "stateMutability": "view",
      "type": "function"
    },
    {
      "constant": false,
      "inputs": [
        {
          "internalType": "address",
          "name": "_operator",
          "type": "address"
        },
        {
          "internalType": "bool",
          "name": "_approved",
          "type": "bool"
        }
      ],
      "name": "setApprovalForAll",
      "outputs": [],
      "payable": false,
      "stateMutability": "nonpayable",
      "type": "function"
    },
    {
      "constant": true,
      "inputs": [
        {
          "internalType": "address",
          "name": "_owner",
          "type": "address"
        },
        {
          "internalType": "address",
          "name": "_operator",
          "type": "address"
        }
      ],
      "name": "isApprovedForAll",
      "outputs": [
        {
          "internalType": "bool",
          "name": "",
          "type": "bool"
        }
      ],
      "payable": false,
      "stateMutability": "view",
      "type": "function"
    },
    {
      "constant": false,
      "inputs": [
        {
          "internalType": "uint8",
          "name": "_x",
          "type": "uint8"
        },
        {
          "internalType": "uint8",
          "name": "_y",
          "type": "uint8"
        },
        {
          "internalType": "uint8",
          "name": "_z",
          "type": "uint8"
        }
      ],
      "name": "mint",
      "outputs": [],
      "payable": true,
      "stateMutability": "payable",
      "type": "function"
    },
    {
      "constant": false,
      "inputs": [
        {
          "internalType": "uint256",
          "name": "_tokenId",
          "type": "uint256"
        }
      ],
      "name": "burn",
      "outputs": [],
      "payable": false,
      "stateMutability": "nonpayable",
      "type": "function"
    },
    {
      "constant": true,
      "inputs": [],
      "name": "totalSupply",
      "outputs": [
        {
          "internalType": "uint256",
          "name": "",
          "type": "uint256"
        }
      ],
      "payable": false,
      "stateMutability": "view",
      "type": "function"
    },
    {
      "constant": true,
      "inputs": [
        {
          "internalType": "address",
          "name": "owner",
          "type": "address"
        },
        {
          "internalType": "uint256",
          "name": "index",
          "type": "uint256"
        }
      ],
      "name": "tokenOfOwnerByIndex",
      "outputs": [
        {
          "internalType": "uint256",
          "name": "",
          "type": "uint256"
        }
      ],
      "payable": false,
      "stateMutability": "view",
      "type": "function"
    },
    {
      "constant": true,
      "inputs": [
        {
          "internalType": "uint256",
          "name": "index",
          "type": "uint256"
        }
      ],
      "name": "tokenByIndex",
      "outputs": [
        {
          "internalType": "uint256",
          "name": "",
          "type": "uint256"
        }
      ],
      "payable": false,
      "stateMutability": "view",
      "type": "function"
    },
    {
      "constant": true,
      "inputs": [],
      "name": "name",
      "outputs": [
        {
          "internalType": "string",
          "name": "",
          "type": "string"
        }
      ],
      "payable": false,
      "stateMutability": "view",
      "type": "function"
    },
    {
      "constant": true,
      "inputs": [],
      "name": "symbol",
      "outputs": [
        {
          "internalType": "string",
          "name": "",
          "type": "string"
        }
      ],
      "payable": false,
      "stateMutability": "view",
      "type": "function"
    },
    {
      "constant": true,
      "inputs": [
        {
          "internalType": "uint256",
          "name": "tokenId",
          "type": "uint256"
        }
      ],
      "name": "tokenURI",
      "outputs": [
        {
          "internalType": "string",
          "name": "",
          "type": "string"
        }
      ],
      "payable": false,
      "stateMutability": "view",
      "type": "function"
    }
  ],
  "bytecode": "0x608060405233600660006101000a81548173ffffffffffffffffffffffffffffffffffffffff021916908373ffffffffffffffffffffffffffffffffffffffff1602179055506001600760006301ffc9a760e01b7bffffffffffffffffffffffffffffffffffffffffffffffffffffffff1916815260200190815260200160002060006101000a81548160ff0219169083151502179055506001600760006380ac58cd60e01b7bffffffffffffffffffffffffffffffffffffffffffffffffffffffff1916815260200190815260200160002060006101000a81548160ff021916908315150217905550600160076000635b5e139f60e01b7bffffffffffffffffffffffffffffffffffffffffffffffffffffffff1916815260200190815260200160002060006101000a81548160ff0219169083151502179055506200014b6200015160201b60201c565b62000de2565b620001b16040518060400160405280600381526020017f55524c00000000000000000000000000000000000000000000000000000000008152506040518060800160405280604981526020016200474360499139620001b460201b60201c565b50565b60008073ffffffffffffffffffffffffffffffffffffffff16600160009054906101000a900473ffffffffffffffffffffffffffffffffffffffff1673ffffffffffffffffffffffffffffffffffffffff161480620002455750600062000243600160009054906101000a900473ffffffffffffffffffffffffffffffffffffffff166200072460201b60201c565b145b156200025f576200025d60006200072f60201b60201c565b505b600160009054906101000a900473ffffffffffffffffffffffffffffffffffffffff1673ffffffffffffffffffffffffffffffffffffffff166338cc48316040518163ffffffff1660e01b8152600401602060405180830381600087803b158015620002ca57600080fd5b505af1158015620002df573d6000803e3d6000fd5b505050506040513d6020811015620002f657600080fd5b810190808051906020019092919050505073ffffffffffffffffffffffffffffffffffffffff166000809054906101000a900473ffffffffffffffffffffffffffffffffffffffff1673ffffffffffffffffffffffffffffffffffffffff16146200044357600160009054906101000a900473ffffffffffffffffffffffffffffffffffffffff1673ffffffffffffffffffffffffffffffffffffffff166338cc48316040518163ffffffff1660e01b8152600401602060405180830381600087803b158015620003c657600080fd5b505af1158015620003db573d6000803e3d6000fd5b505050506040513d6020811015620003f257600080fd5b81019080805190602001909291905050506000806101000a81548173ffffffffffffffffffffffffffffffffffffffff021916908373ffffffffffffffffffffffffffffffffffffffff1602179055505b60008060009054906101000a900473ffffffffffffffffffffffffffffffffffffffff1673ffffffffffffffffffffffffffffffffffffffff1663524f3889856040518263ffffffff1660e01b81526004018080602001828103825283818151815260200191508051906020019080838360005b83811015620004d4578082015181840152602081019050620004b7565b50505050905090810190601f168015620005025780820380516001836020036101000a031916815260200191505b5092505050602060405180830381600087803b1580156200052257600080fd5b505af115801562000537573d6000803e3d6000fd5b505050506040513d60208110156200054e57600080fd5b8101908080519060200190929190505050905062030d403a02670de0b6b3a76400000181111562000586576000801b9150506200071e565b6000809054906101000a900473ffffffffffffffffffffffffffffffffffffffff1673ffffffffffffffffffffffffffffffffffffffff1663adf59f9982600087876040518563ffffffff1660e01b8152600401808481526020018060200180602001838103835285818151815260200191508051906020019080838360005b838110156200062357808201518184015260208101905062000606565b50505050905090810190601f168015620006515780820380516001836020036101000a031916815260200191505b50838103825284818151815260200191508051906020019080838360005b838110156200068c5780820151818401526020810190506200066f565b50505050905090810190601f168015620006ba5780820380516001836020036101000a031916815260200191505b50955050505050506020604051808303818588803b158015620006dc57600080fd5b505af1158015620006f1573d6000803e3d6000fd5b50505050506040513d60208110156200070957600080fd5b81019080805190602001909291905050509150505b92915050565b6000813b9050919050565b6000620007416200074860201b60201c565b9050919050565b60008062000770731d3b2638a7cc9f2cb3d298a3da7a90b67e5506ed6200072460201b60201c565b11156200081c57731d3b2638a7cc9f2cb3d298a3da7a90b67e5506ed600160006101000a81548173ffffffffffffffffffffffffffffffffffffffff021916908373ffffffffffffffffffffffffffffffffffffffff160217905550620008126040518060400160405280600b81526020017f6574685f6d61696e6e657400000000000000000000000000000000000000000081525062000d1760201b60201c565b6001905062000d14565b60006200084373c03a2615d5efaf5f49f60b7bb6583eaec212fdf16200072460201b60201c565b1115620008ef5773c03a2615d5efaf5f49f60b7bb6583eaec212fdf1600160006101000a81548173ffffffffffffffffffffffffffffffffffffffff021916908373ffffffffffffffffffffffffffffffffffffffff160217905550620008e56040518060400160405280600c81526020017f6574685f726f707374656e33000000000000000000000000000000000000000081525062000d1760201b60201c565b6001905062000d14565b60006200091673b7a07bcf2ba2f2703b24c0691b5278999c59ac7e6200072460201b60201c565b1115620009c25773b7a07bcf2ba2f2703b24c0691b5278999c59ac7e600160006101000a81548173ffffffffffffffffffffffffffffffffffffffff021916908373ffffffffffffffffffffffffffffffffffffffff160217905550620009b86040518060400160405280600981526020017f6574685f6b6f76616e000000000000000000000000000000000000000000000081525062000d1760201b60201c565b6001905062000d14565b6000620009e973146500cfd35b22e4a392fe0adc06de1a1368ed486200072460201b60201c565b111562000a955773146500cfd35b22e4a392fe0adc06de1a1368ed48600160006101000a81548173ffffffffffffffffffffffffffffffffffffffff021916908373ffffffffffffffffffffffffffffffffffffffff16021790555062000a8b6040518060400160405280600b81526020017f6574685f72696e6b65627900000000000000000000000000000000000000000081525062000d1760201b60201c565b6001905062000d14565b600062000abc73a2998efd205fb9d4b4963afb70778d6354ad3a416200072460201b60201c565b111562000b685773a2998efd205fb9d4b4963afb70778d6354ad3a41600160006101000a81548173ffffffffffffffffffffffffffffffffffffffff021916908373ffffffffffffffffffffffffffffffffffffffff16021790555062000b5e6040518060400160405280600a81526020017f6574685f676f65726c690000000000000000000000000000000000000000000081525062000d1760201b60201c565b6001905062000d14565b600062000b8f736f485c8bf6fc43ea212e93bbf8ce046c7f1cb4756200072460201b60201c565b111562000bf557736f485c8bf6fc43ea212e93bbf8ce046c7f1cb475600160006101000a81548173ffffffffffffffffffffffffffffffffffffffff021916908373ffffffffffffffffffffffffffffffffffffffff1602179055506001905062000d14565b600062000c1c7320e12a1f859b3feae5fb2a0a32c18f5a65555bbf6200072460201b60201c565b111562000c82577320e12a1f859b3feae5fb2a0a32c18f5a65555bbf600160006101000a81548173ffffffffffffffffffffffffffffffffffffffff021916908373ffffffffffffffffffffffffffffffffffffffff1602179055506001905062000d14565b600062000ca97351efaf4c8b3c9afbd5ab9f4bbc82784ab6ef8faa6200072460201b60201c565b111562000d0f577351efaf4c8b3c9afbd5ab9f4bbc82784ab6ef8faa600160006101000a81548173ffffffffffffffffffffffffffffffffffffffff021916908373ffffffffffffffffffffffffffffffffffffffff1602179055506001905062000d14565b600090505b90565b806002908051906020019062000d2f92919062000d33565b5050565b828054600181600116156101000203166002900490600052602060002090601f016020900481019282601f1062000d7657805160ff191683800117855562000da7565b8280016001018555821562000da7579182015b8281111562000da657825182559160200191906001019062000d89565b5b50905062000db6919062000dba565b5090565b62000ddf91905b8082111562000ddb57600081600090555060010162000dc1565b5090565b90565b6139518062000df26000396000f3fe6080604052600436106101665760003560e01c8063634282af116100d157806395d89b411161008a578063b88d4fde11610064578063b88d4fde14610ab6578063c87b56dd14610bc8578063e6f12af914610c7c578063e985e9c514610cc757610166565b806395d89b41146109bf578063a22cb46514610a4f578063a2e6204514610aac57610166565b8063634282af146107985780636352211e1461080e578063700319c51461088957806370a08231146108d857806373db08441461093d5780638da5cb5b1461096857610166565b806327dc297e1161012357806327dc297e146103e95780632f745c59146104bb57806338bbfa501461052a57806342842e0e1461069357806342966c681461070e5780634f6ccce71461074957610166565b806301ffc9a71461016b57806306fdde03146101dd578063081812fc1461026d578063095ea7b3146102e857806318160ddd1461034357806323b872dd1461036e575b600080fd5b34801561017757600080fd5b506101c36004803603602081101561018e57600080fd5b8101908080357bffffffffffffffffffffffffffffffffffffffffffffffffffffffff19169060200190929190505050610d50565b604051808215151515815260200191505060405180910390f35b3480156101e957600080fd5b506101f2610db8565b6040518080602001828103825283818151815260200191508051906020019080838360005b83811015610232578082015181840152602081019050610217565b50505050905090810190601f16801561025f5780820380516001836020036101000a031916815260200191505b509250505060405180910390f35b34801561027957600080fd5b506102a66004803603602081101561029057600080fd5b8101908080359060200190929190505050610df5565b604051808273ffffffffffffffffffffffffffffffffffffffff1673ffffffffffffffffffffffffffffffffffffffff16815260200191505060405180910390f35b3480156102f457600080fd5b506103416004803603604081101561030b57600080fd5b81019080803573ffffffffffffffffffffffffffffffffffffffff16906020019092919080359060200190929190505050610e32565b005b34801561034f57600080fd5b50610358611029565b6040518082815260200191505060405180910390f35b34801561037a57600080fd5b506103e76004803603606081101561039157600080fd5b81019080803573ffffffffffffffffffffffffffffffffffffffff169060200190929190803573ffffffffffffffffffffffffffffffffffffffff16906020019092919080359060200190929190505050611036565b005b3480156103f557600080fd5b506104b96004803603604081101561040c57600080fd5b81019080803590602001909291908035906020019064010000000081111561043357600080fd5b82018360208201111561044557600080fd5b8035906020019184600183028401116401000000008311171561046757600080fd5b91908080601f016020809104026020016040519081016040528093929190818152602001838380828437600081840152601f19601f8201169050808301925050505050505091929192905050506115b9565b005b3480156104c757600080fd5b50610514600480360360408110156104de57600080fd5b81019080803573ffffffffffffffffffffffffffffffffffffffff169060200190929190803590602001909291905050506116a9565b6040518082815260200191505060405180910390f35b34801561053657600080fd5b506106916004803603606081101561054d57600080fd5b81019080803590602001909291908035906020019064010000000081111561057457600080fd5b82018360208201111561058657600080fd5b803590602001918460018302840111640100000000831117156105a857600080fd5b91908080601f016020809104026020016040519081016040528093929190818152602001838380828437600081840152601f19601f8201169050808301925050505050505091929192908035906020019064010000000081111561060b57600080fd5b82018360208201111561061d57600080fd5b8035906020019184600183028401116401000000008311171561063f57600080fd5b91908080601f016020809104026020016040519081016040528093929190818152602001838380828437600081840152601f19601f820116905080830192505050505050509192919290505050611715565b005b34801561069f57600080fd5b5061070c600480360360608110156106b657600080fd5b81019080803573ffffffffffffffffffffffffffffffffffffffff169060200190929190803573ffffffffffffffffffffffffffffffffffffffff16906020019092919080359060200190929190505050611738565b005b34801561071a57600080fd5b506107476004803603602081101561073157600080fd5b8101908080359060200190929190505050611758565b005b34801561075557600080fd5b506107826004803603602081101561076c57600080fd5b81019080803590602001909291905050506119d9565b6040518082815260200191505060405180910390f35b3480156107a457600080fd5b506107d1600480360360208110156107bb57600080fd5b8101908080359060200190929190505050611a0d565b604051808560ff1660ff1681526020018460ff1660ff1681526020018360ff1660ff16815260200182815260200194505050505060405180910390f35b34801561081a57600080fd5b506108476004803603602081101561083157600080fd5b8101908080359060200190929190505050611a71565b604051808273ffffffffffffffffffffffffffffffffffffffff1673ffffffffffffffffffffffffffffffffffffffff16815260200191505060405180910390f35b34801561089557600080fd5b506108c2600480360360208110156108ac57600080fd5b8101908080359060200190929190505050611b39565b6040518082815260200191505060405180910390f35b3480156108e457600080fd5b50610927600480360360208110156108fb57600080fd5b81019080803573ffffffffffffffffffffffffffffffffffffffff169060200190929190505050611b5a565b6040518082815260200191505060405180910390f35b34801561094957600080fd5b50610952611ba3565b6040518082815260200191505060405180910390f35b34801561097457600080fd5b5061097d611ba9565b604051808273ffffffffffffffffffffffffffffffffffffffff1673ffffffffffffffffffffffffffffffffffffffff16815260200191505060405180910390f35b3480156109cb57600080fd5b506109d4611bcf565b6040518080602001828103825283818151815260200191508051906020019080838360005b83811015610a145780820151818401526020810190506109f9565b50505050905090810190601f168015610a415780820380516001836020036101000a031916815260200191505b509250505060405180910390f35b348015610a5b57600080fd5b50610aaa60048036036040811015610a7257600080fd5b81019080803573ffffffffffffffffffffffffffffffffffffffff169060200190929190803515159060200190929190505050611c0c565b005b610ab4611d0d565b005b348015610ac257600080fd5b50610bc660048036036080811015610ad957600080fd5b81019080803573ffffffffffffffffffffffffffffffffffffffff169060200190929190803573ffffffffffffffffffffffffffffffffffffffff1690602001909291908035906020019092919080359060200190640100000000811115610b4057600080fd5b820183602082011115610b5257600080fd5b80359060200191846001830284011164010000000083111715610b7457600080fd5b91908080601f016020809104026020016040519081016040528093929190818152602001838380828437600081840152601f19601f820116905080830192505050505050509192919290505050611d67565b005b348015610bd457600080fd5b50610c0160048036036020811015610beb57600080fd5b8101908080359060200190929190505050611df6565b6040518080602001828103825283818151815260200191508051906020019080838360005b83811015610c41578082015181840152602081019050610c26565b50505050905090810190601f168015610c6e5780820380516001836020036101000a031916815260200191505b509250505060405180910390f35b610cc560048036036060811015610c9257600080fd5b81019080803560ff169060200190929190803560ff169060200190929190803560ff169060200190929190505050611e08565b005b348015610cd357600080fd5b50610d3660048036036040811015610cea57600080fd5b81019080803573ffffffffffffffffffffffffffffffffffffffff169060200190929190803573ffffffffffffffffffffffffffffffffffffffff169060200190929190505050612076565b604051808215151515815260200191505060405180910390f35b600060076000837bffffffffffffffffffffffffffffffffffffffffffffffffffffffff19167bffffffffffffffffffffffffffffffffffffffffffffffffffffffff1916815260200190815260200160002060009054906101000a900460ff169050919050565b60606040518060400160405280600b81526020017f454d4f4a4920544f4b454e000000000000000000000000000000000000000000815250905090565b6000600a600083815260200190815260200160002060009054906101000a900473ffffffffffffffffffffffffffffffffffffffff169050919050565b6000610e3d82611a71565b90506000600b60008373ffffffffffffffffffffffffffffffffffffffff1673ffffffffffffffffffffffffffffffffffffffff16815260200190815260200160002060003373ffffffffffffffffffffffffffffffffffffffff1673ffffffffffffffffffffffffffffffffffffffff16815260200190815260200160002060009054906101000a900460ff1690503373ffffffffffffffffffffffffffffffffffffffff168273ffffffffffffffffffffffffffffffffffffffff161480610f045750805b610f76576040517f08c379a00000000000000000000000000000000000000000000000000000000081526004018080602001828103825260158152602001807f6e6f7420617070726f766564206279206f776e6572000000000000000000000081525060200191505060405180910390fd5b83600a600085815260200190815260200160002060006101000a81548173ffffffffffffffffffffffffffffffffffffffff021916908373ffffffffffffffffffffffffffffffffffffffff160217905550828473ffffffffffffffffffffffffffffffffffffffff168373ffffffffffffffffffffffffffffffffffffffff167f8c5be1e5ebec7d5bd14f71427d1e84f3dd0314c0f7b2291e5b200ac8c7c3b92560405160405180910390a450505050565b6000600e80549050905090565b60006008600083815260200190815260200160002060009054906101000a900473ffffffffffffffffffffffffffffffffffffffff1690508373ffffffffffffffffffffffffffffffffffffffff168173ffffffffffffffffffffffffffffffffffffffff16146110f2576040517f08c379a00000000000000000000000000000000000000000000000000000000081526004018080602001828103825260238152602001806138fa6023913960400191505060405180910390fd5b600073ffffffffffffffffffffffffffffffffffffffff168373ffffffffffffffffffffffffffffffffffffffff161415611195576040517f08c379a000000000000000000000000000000000000000000000000000000000815260040180806020018281038252601b8152602001807f5f746f20697320696e76616c696420616464726573732030783021000000000081525060200191505060405180910390fd5b6000600b60008373ffffffffffffffffffffffffffffffffffffffff1673ffffffffffffffffffffffffffffffffffffffff16815260200190815260200160002060003373ffffffffffffffffffffffffffffffffffffffff1673ffffffffffffffffffffffffffffffffffffffff16815260200190815260200160002060009054906101000a900460ff1690506000600a600085815260200190815260200160002060009054906101000a900473ffffffffffffffffffffffffffffffffffffffff1690503373ffffffffffffffffffffffffffffffffffffffff168373ffffffffffffffffffffffffffffffffffffffff1614806112c057503373ffffffffffffffffffffffffffffffffffffffff168173ffffffffffffffffffffffffffffffffffffffff16145b806112c85750815b61133a576040517f08c379a000000000000000000000000000000000000000000000000000000000815260040180806020018281038252600b8152602001807f6e6f7420616c6c6f77656400000000000000000000000000000000000000000081525060200191505060405180910390fd5b846008600086815260200190815260200160002060006101000a81548173ffffffffffffffffffffffffffffffffffffffff021916908373ffffffffffffffffffffffffffffffffffffffff1602179055506113df6001600960008973ffffffffffffffffffffffffffffffffffffffff1673ffffffffffffffffffffffffffffffffffffffff1681526020019081526020016000205461210a90919063ffffffff16565b600960008873ffffffffffffffffffffffffffffffffffffffff1673ffffffffffffffffffffffffffffffffffffffff168152602001908152602001600020819055506114756001600960008873ffffffffffffffffffffffffffffffffffffffff1673ffffffffffffffffffffffffffffffffffffffff1681526020019081526020016000205461215490919063ffffffff16565b600960008773ffffffffffffffffffffffffffffffffffffffff1673ffffffffffffffffffffffffffffffffffffffff16815260200190815260200160002081905550600073ffffffffffffffffffffffffffffffffffffffff16600a600086815260200190815260200160002060009054906101000a900473ffffffffffffffffffffffffffffffffffffffff1673ffffffffffffffffffffffffffffffffffffffff161461155657600a600085815260200190815260200160002060006101000a81549073ffffffffffffffffffffffffffffffffffffffff02191690555b838573ffffffffffffffffffffffffffffffffffffffff168773ffffffffffffffffffffffffffffffffffffffff167fddf252ad1be2c89b69c2b068fc378daa952ba7f163c4a11628f55a4df523b3ef60405160405180910390a4505050505050565b6115c16121dc565b73ffffffffffffffffffffffffffffffffffffffff163373ffffffffffffffffffffffffffffffffffffffff16146115f857600080fd5b7fcf34ef537ac33ee1ac626ca1587a0a7e8e51561e5514f8cb36afa1c5102b3bab816040518080602001828103825283818151815260200191508051906020019080838360005b8381101561165a57808201518184015260208101905061163f565b50505050905090810190601f1680156116875780820380516001836020036101000a031916815260200191505b509250505060405180910390a161169f8160026124f9565b6005819055505050565b60006116b483611b5a565b821061170b576040517f08c379a000000000000000000000000000000000000000000000000000000000815260040180806020018281038252602b8152602001806137fd602b913960400191505060405180910390fd5b6000905092915050565b6000801b600360008060001b815260200190815260200160002081905550505050565b61175383838360405180602001604052806000815250611d67565b505050565b600061176382611a71565b90503373ffffffffffffffffffffffffffffffffffffffff168173ffffffffffffffffffffffffffffffffffffffff16146117e9576040517f08c379a00000000000000000000000000000000000000000000000000000000081526004018080602001828103825260288152602001806138d26028913960400191505060405180910390fd5b600073ffffffffffffffffffffffffffffffffffffffff16600a600084815260200190815260200160002060009054906101000a900473ffffffffffffffffffffffffffffffffffffffff1673ffffffffffffffffffffffffffffffffffffffff161461188757600a600083815260200190815260200160002060006101000a81549073ffffffffffffffffffffffffffffffffffffffff02191690555b60006008600084815260200190815260200160002060006101000a81548173ffffffffffffffffffffffffffffffffffffffff021916908373ffffffffffffffffffffffffffffffffffffffff16021790555061192d6001600960003373ffffffffffffffffffffffffffffffffffffffff1673ffffffffffffffffffffffffffffffffffffffff1681526020019081526020016000205461210a90919063ffffffff16565b600960003373ffffffffffffffffffffffffffffffffffffffff1673ffffffffffffffffffffffffffffffffffffffff168152602001908152602001600020819055506119798261260c565b81600073ffffffffffffffffffffffffffffffffffffffff168273ffffffffffffffffffffffffffffffffffffffff167fddf252ad1be2c89b69c2b068fc378daa952ba7f163c4a11628f55a4df523b3ef60405160405180910390a45050565b60006119e3611029565b82106119ee57600080fd5b600e82815481106119fb57fe5b90600052602060002001549050919050565b600d8181548110611a1a57fe5b90600052602060002090600202016000915090508060000160009054906101000a900460ff16908060000160019054906101000a900460ff16908060000160029054906101000a900460ff16908060010154905084565b6000806008600084815260200190815260200160002060009054906101000a900473ffffffffffffffffffffffffffffffffffffffff169050600073ffffffffffffffffffffffffffffffffffffffff168173ffffffffffffffffffffffffffffffffffffffff161415611b30576040517f08c379a000000000000000000000000000000000000000000000000000000000815260040180806020018281038252602f8152602001806138a3602f913960400191505060405180910390fd5b80915050919050565b600e8181548110611b4657fe5b906000526020600020016000915090505481565b6000600960008373ffffffffffffffffffffffffffffffffffffffff1673ffffffffffffffffffffffffffffffffffffffff168152602001908152602001600020549050919050565b60055481565b600660009054906101000a900473ffffffffffffffffffffffffffffffffffffffff1681565b60606040518060400160405280600381526020017f454d4a0000000000000000000000000000000000000000000000000000000000815250905090565b80600b60003373ffffffffffffffffffffffffffffffffffffffff1673ffffffffffffffffffffffffffffffffffffffff16815260200190815260200160002060008473ffffffffffffffffffffffffffffffffffffffff1673ffffffffffffffffffffffffffffffffffffffff16815260200190815260200160002060006101000a81548160ff0219169083151502179055508173ffffffffffffffffffffffffffffffffffffffff163373ffffffffffffffffffffffffffffffffffffffff167f17307eab39ab6107e8899845ad3d59bd9653f200f220920489ca2b5937696c3183604051808215151515815260200191505060405180910390a35050565b611d646040518060400160405280600381526020017f55524c000000000000000000000000000000000000000000000000000000000081525060405180608001604052806049815260200161385a604991396126d7565b50565b611d7384848484612c1d565b611de5576040517f08c379a000000000000000000000000000000000000000000000000000000000815260040180806020018281038252601e8152602001807f455243373231206e6f742072656365697661626c6520636f6e7472616374000081525060200191505060405180910390fd5b611df0848484611036565b50505050565b6060611e0182612f3f565b9050919050565b611e106136fa565b60405180608001604052808560ff1681526020018460ff1681526020018360ff168152602001600554815250905060006001600d839080600181540180825580915050906001820390600052602060002090600202016000909192909190915060008201518160000160006101000a81548160ff021916908360ff16021790555060208201518160000160016101000a81548160ff021916908360ff16021790555060408201518160000160026101000a81548160ff021916908360ff160217905550606082015181600101555050039050336008600083815260200190815260200160002060006101000a81548173ffffffffffffffffffffffffffffffffffffffff021916908373ffffffffffffffffffffffffffffffffffffffff160217905550611f876001600960003373ffffffffffffffffffffffffffffffffffffffff1673ffffffffffffffffffffffffffffffffffffffff1681526020019081526020016000205461215490919063ffffffff16565b600960003373ffffffffffffffffffffffffffffffffffffffff1673ffffffffffffffffffffffffffffffffffffffff16815260200190815260200160002081905550600e80549050600f600083815260200190815260200160002081905550600e819080600181540180825580915050906001820390600052602060002001600090919290919091505550803373ffffffffffffffffffffffffffffffffffffffff16600073ffffffffffffffffffffffffffffffffffffffff167fddf252ad1be2c89b69c2b068fc378daa952ba7f163c4a11628f55a4df523b3ef60405160405180910390a45050505050565b6000600b60008473ffffffffffffffffffffffffffffffffffffffff1673ffffffffffffffffffffffffffffffffffffffff16815260200190815260200160002060008373ffffffffffffffffffffffffffffffffffffffff1673ffffffffffffffffffffffffffffffffffffffff16815260200190815260200160002060009054906101000a900460ff16905092915050565b600061214c83836040518060400160405280601e81526020017f536166654d6174683a207375627472616374696f6e206f766572666c6f770000815250613062565b905092915050565b6000808284019050838110156121d2576040517f08c379a000000000000000000000000000000000000000000000000000000000815260040180806020018281038252601b8152602001807f536166654d6174683a206164646974696f6e206f766572666c6f77000000000081525060200191505060405180910390fd5b8091505092915050565b60008073ffffffffffffffffffffffffffffffffffffffff16600160009054906101000a900473ffffffffffffffffffffffffffffffffffffffff1673ffffffffffffffffffffffffffffffffffffffff16148061226457506000612262600160009054906101000a900473ffffffffffffffffffffffffffffffffffffffff16613122565b145b1561227557612273600061312d565b505b600160009054906101000a900473ffffffffffffffffffffffffffffffffffffffff1673ffffffffffffffffffffffffffffffffffffffff166338cc48316040518163ffffffff1660e01b8152600401602060405180830381600087803b1580156122df57600080fd5b505af11580156122f3573d6000803e3d6000fd5b505050506040513d602081101561230957600080fd5b810190808051906020019092919050505073ffffffffffffffffffffffffffffffffffffffff166000809054906101000a900473ffffffffffffffffffffffffffffffffffffffff1673ffffffffffffffffffffffffffffffffffffffff161461245257600160009054906101000a900473ffffffffffffffffffffffffffffffffffffffff1673ffffffffffffffffffffffffffffffffffffffff166338cc48316040518163ffffffff1660e01b8152600401602060405180830381600087803b1580156123d757600080fd5b505af11580156123eb573d6000803e3d6000fd5b505050506040513d602081101561240157600080fd5b81019080805190602001909291905050506000806101000a81548173ffffffffffffffffffffffffffffffffffffffff021916908373ffffffffffffffffffffffffffffffffffffffff1602179055505b6000809054906101000a900473ffffffffffffffffffffffffffffffffffffffff1673ffffffffffffffffffffffffffffffffffffffff1663c281d19e6040518163ffffffff1660e01b815260040160206040518083038186803b1580156124b957600080fd5b505afa1580156124cd573d6000803e3d6000fd5b505050506040513d60208110156124e357600080fd5b8101908080519060200190929190505050905090565b600060608390506000809050600080905060008090505b83518110156125ed57603084828151811061252757fe5b602001015160f81c60f81b60f81c60ff16101580156125635750603984828151811061254f57fe5b602001015160f81c60f81b60f81c60ff1611155b156125b557811561258657600086141561257c576125ed565b8580600190039650505b600a83029250603084828151811061259a57fe5b602001015160f81c60f81b60f81c60ff1603830192506125e0565b602e8482815181106125c357fe5b602001015160f81c60f81b60f81c60ff1614156125df57600191505b5b8080600101915050612510565b5060008511156126005784600a0a820291505b81935050505092915050565b60006126276001600e8054905061210a90919063ffffffff16565b90506000600e828154811061263857fe5b906000526020600020015490506000600f600085815260200190815260200160002054905081600e828154811061266b57fe5b906000526020600020018190555080600f6000848152602001908152602001600020819055506126aa6001600e8054905061210a90919063ffffffff16565b600e816126b7919061372b565b506000600f60008681526020019081526020016000208190555050505050565b60008073ffffffffffffffffffffffffffffffffffffffff16600160009054906101000a900473ffffffffffffffffffffffffffffffffffffffff1673ffffffffffffffffffffffffffffffffffffffff16148061275f5750600061275d600160009054906101000a900473ffffffffffffffffffffffffffffffffffffffff16613122565b145b156127705761276e600061312d565b505b600160009054906101000a900473ffffffffffffffffffffffffffffffffffffffff1673ffffffffffffffffffffffffffffffffffffffff166338cc48316040518163ffffffff1660e01b8152600401602060405180830381600087803b1580156127da57600080fd5b505af11580156127ee573d6000803e3d6000fd5b505050506040513d602081101561280457600080fd5b810190808051906020019092919050505073ffffffffffffffffffffffffffffffffffffffff166000809054906101000a900473ffffffffffffffffffffffffffffffffffffffff1673ffffffffffffffffffffffffffffffffffffffff161461294d57600160009054906101000a900473ffffffffffffffffffffffffffffffffffffffff1673ffffffffffffffffffffffffffffffffffffffff166338cc48316040518163ffffffff1660e01b8152600401602060405180830381600087803b1580156128d257600080fd5b505af11580156128e6573d6000803e3d6000fd5b505050506040513d60208110156128fc57600080fd5b81019080805190602001909291905050506000806101000a81548173ffffffffffffffffffffffffffffffffffffffff021916908373ffffffffffffffffffffffffffffffffffffffff1602179055505b60008060009054906101000a900473ffffffffffffffffffffffffffffffffffffffff1673ffffffffffffffffffffffffffffffffffffffff1663524f3889856040518263ffffffff1660e01b81526004018080602001828103825283818151815260200191508051906020019080838360005b838110156129dc5780820151818401526020810190506129c1565b50505050905090810190601f168015612a095780820380516001836020036101000a031916815260200191505b5092505050602060405180830381600087803b158015612a2857600080fd5b505af1158015612a3c573d6000803e3d6000fd5b505050506040513d6020811015612a5257600080fd5b8101908080519060200190929190505050905062030d403a02670de0b6b3a764000001811115612a88576000801b915050612c17565b6000809054906101000a900473ffffffffffffffffffffffffffffffffffffffff1673ffffffffffffffffffffffffffffffffffffffff1663adf59f9982600087876040518563ffffffff1660e01b8152600401808481526020018060200180602001838103835285818151815260200191508051906020019080838360005b83811015612b23578082015181840152602081019050612b08565b50505050905090810190601f168015612b505780820380516001836020036101000a031916815260200191505b50838103825284818151815260200191508051906020019080838360005b83811015612b89578082015181840152602081019050612b6e565b50505050905090810190601f168015612bb65780820380516001836020036101000a031916815260200191505b50955050505050506020604051808303818588803b158015612bd757600080fd5b505af1158015612beb573d6000803e3d6000fd5b50505050506040513d6020811015612c0257600080fd5b81019080805190602001909291905050509150505b92915050565b6000612c3e8473ffffffffffffffffffffffffffffffffffffffff1661313e565b612c4b5760019050612f37565b600060608573ffffffffffffffffffffffffffffffffffffffff168673ffffffffffffffffffffffffffffffffffffffff1663150b7a02905060e01b33898888604051602401808573ffffffffffffffffffffffffffffffffffffffff1673ffffffffffffffffffffffffffffffffffffffff1681526020018473ffffffffffffffffffffffffffffffffffffffff1673ffffffffffffffffffffffffffffffffffffffff16815260200183815260200180602001828103825283818151815260200191508051906020019080838360005b83811015612d38578082015181840152602081019050612d1d565b50505050905090810190601f168015612d655780820380516001836020036101000a031916815260200191505b5095505050505050604051602081830303815290604052907bffffffffffffffffffffffffffffffffffffffffffffffffffffffff19166020820180517bffffffffffffffffffffffffffffffffffffffffffffffffffffffff83818316178352505050506040518082805190602001908083835b60208310612dfd5780518252602082019150602081019050602083039250612dda565b6001836020036101000a0380198251168184511680821785525050505050509050019150506000604051808303816000865af19150503d8060008114612e5f576040519150601f19603f3d011682016040523d82523d6000602084013e612e64565b606091505b509150915081612ebf576040517f08c379a00000000000000000000000000000000000000000000000000000000081526004018080602001828103825260328152602001806138286032913960400191505060405180910390fd5b6000818060200190516020811015612ed657600080fd5b8101908080519060200190929190505050905063150b7a0260e01b7bffffffffffffffffffffffffffffffffffffffffffffffffffffffff1916817bffffffffffffffffffffffffffffffffffffffffffffffffffffffff19161493505050505b949350505050565b60606000821415612f87576040518060400160405280600181526020017f3000000000000000000000000000000000000000000000000000000000000000815250905061305d565b600082905060005b60008214612fb1578080600101915050600a8281612fa957fe5b049150612f8f565b6060816040519080825280601f01601f191660200182016040528015612fe65781602001600182028038833980820191505090505b5090505b6000851461305657600182039150600a858161300257fe5b0660300160f81b81838151811061301557fe5b60200101907effffffffffffffffffffffffffffffffffffffffffffffffffffffffffffff1916908160001a905350600a858161304e57fe5b049450612fea565b8093505050505b919050565b600083831115829061310f576040517f08c379a00000000000000000000000000000000000000000000000000000000081526004018080602001828103825283818151815260200191508051906020019080838360005b838110156130d45780820151818401526020810190506130b9565b50505050905090810190601f1680156131015780820380516001836020036101000a031916815260200191505b509250505060405180910390fd5b5060008385039050809150509392505050565b6000813b9050919050565b6000613137613189565b9050919050565b60008060007fc5d2460186f7233c927e7db2dcc703c0e500b653ca82273b7bfad8045d85a47060001b9050833f915080821415801561318057506000801b8214155b92505050919050565b6000806131a9731d3b2638a7cc9f2cb3d298a3da7a90b67e5506ed613122565b111561324b57731d3b2638a7cc9f2cb3d298a3da7a90b67e5506ed600160006101000a81548173ffffffffffffffffffffffffffffffffffffffff021916908373ffffffffffffffffffffffffffffffffffffffff1602179055506132426040518060400160405280600b81526020017f6574685f6d61696e6e65740000000000000000000000000000000000000000008152506136e0565b600190506136dd565b600061326a73c03a2615d5efaf5f49f60b7bb6583eaec212fdf1613122565b111561330c5773c03a2615d5efaf5f49f60b7bb6583eaec212fdf1600160006101000a81548173ffffffffffffffffffffffffffffffffffffffff021916908373ffffffffffffffffffffffffffffffffffffffff1602179055506133036040518060400160405280600c81526020017f6574685f726f707374656e3300000000000000000000000000000000000000008152506136e0565b600190506136dd565b600061332b73b7a07bcf2ba2f2703b24c0691b5278999c59ac7e613122565b11156133cd5773b7a07bcf2ba2f2703b24c0691b5278999c59ac7e600160006101000a81548173ffffffffffffffffffffffffffffffffffffffff021916908373ffffffffffffffffffffffffffffffffffffffff1602179055506133c46040518060400160405280600981526020017f6574685f6b6f76616e00000000000000000000000000000000000000000000008152506136e0565b600190506136dd565b60006133ec73146500cfd35b22e4a392fe0adc06de1a1368ed48613122565b111561348e5773146500cfd35b22e4a392fe0adc06de1a1368ed48600160006101000a81548173ffffffffffffffffffffffffffffffffffffffff021916908373ffffffffffffffffffffffffffffffffffffffff1602179055506134856040518060400160405280600b81526020017f6574685f72696e6b6562790000000000000000000000000000000000000000008152506136e0565b600190506136dd565b60006134ad73a2998efd205fb9d4b4963afb70778d6354ad3a41613122565b111561354f5773a2998efd205fb9d4b4963afb70778d6354ad3a41600160006101000a81548173ffffffffffffffffffffffffffffffffffffffff021916908373ffffffffffffffffffffffffffffffffffffffff1602179055506135466040518060400160405280600a81526020017f6574685f676f65726c69000000000000000000000000000000000000000000008152506136e0565b600190506136dd565b600061356e736f485c8bf6fc43ea212e93bbf8ce046c7f1cb475613122565b11156135d257736f485c8bf6fc43ea212e93bbf8ce046c7f1cb475600160006101000a81548173ffffffffffffffffffffffffffffffffffffffff021916908373ffffffffffffffffffffffffffffffffffffffff160217905550600190506136dd565b60006135f17320e12a1f859b3feae5fb2a0a32c18f5a65555bbf613122565b1115613655577320e12a1f859b3feae5fb2a0a32c18f5a65555bbf600160006101000a81548173ffffffffffffffffffffffffffffffffffffffff021916908373ffffffffffffffffffffffffffffffffffffffff160217905550600190506136dd565b60006136747351efaf4c8b3c9afbd5ab9f4bbc82784ab6ef8faa613122565b11156136d8577351efaf4c8b3c9afbd5ab9f4bbc82784ab6ef8faa600160006101000a81548173ffffffffffffffffffffffffffffffffffffffff021916908373ffffffffffffffffffffffffffffffffffffffff160217905550600190506136dd565b600090505b90565b80600290805190602001906136f6929190613757565b5050565b6040518060800160405280600060ff168152602001600060ff168152602001600060ff168152602001600081525090565b8154818355818111156137525781836000526020600020918201910161375191906137d7565b5b505050565b828054600181600116156101000203166002900490600052602060002090601f016020900481019282601f1061379857805160ff19168380011785556137c6565b828001600101855582156137c6579182015b828111156137c55782518255916020019190600101906137aa565b5b5090506137d391906137d7565b5090565b6137f991905b808211156137f55760008160009055506001016137dd565b5090565b9056fe455243373231456e756d657261626c653a206f776e657220696e646578206f7574206f6620626f756e64734552433732313a207472616e7366657220746f206e6f6e20455243373231526563656976657220696d706c656d656e7465726a736f6e2868747470733a2f2f6d696e2d6170692e63727970746f636f6d706172652e636f6d2f646174612f70726963653f6673796d3d455448267473796d733d555344292e555344546f6b656e206973206e6f7420617661696c61626c6520746f2075736520666f7220736f6d6520726561736f6e732e6d73672e73656e646572206973206e6f7420746865206f776e6572206f662074686520746f6b656e5f66726f6d206973206e6f7420746865206f776e6572206f662074686520746f6b656ea265627a7a7231582040f1021a013a9e58d190f077ce99841f539521fdfe04dbfe53ba1fe36a9abe4f64736f6c634300051100326a736f6e2868747470733a2f2f6d696e2d6170692e63727970746f636f6d706172652e636f6d2f646174612f70726963653f6673796d3d455448267473796d733d555344292e555344",
  "source": "pragma solidity ^0.5.0;\n\nimport \"@openzeppelin/contracts/token/ERC721/IERC721Full.sol\";\nimport \"@openzeppelin/contracts/math/SafeMath.sol\";\nimport \"@openzeppelin/contracts/utils/Address.sol\";\nimport \"@openzeppelin/contracts/token/ERC721/IERC721Receiver.sol\";\nimport \"@openzeppelin/contracts/utils/Strings.sol\";\nimport \"./UrlRequest.sol\";\nimport \"../installed_contracts/oraclizeAPI_0.5.sol\";\n\ncontract DeedToken is IERC721Full, usingOraclize {\n    \n    using SafeMath for uint256;\n    using Address for address;\n    \n    uint public ETHUSD;\n\n    bytes4 private constant _ERC721_RECEIVED = 0x150b7a02;\n\n    address payable public owner;\n    mapping(bytes4 => bool) supportedInterfaces;\n    \n    mapping(uint256 => address) tokenOwners;\n    mapping(address => uint256) balances;\n    mapping(uint256 => address) allowance;\n    // delegation available? middleman specified required\n    mapping(address => mapping(address => bool)) operators;\n\n    mapping(uint256 => string) tokenURIs;\n\n    // address urlRequestAddress;\n\n    struct asset {\n        uint8 x; // face\n        uint8 y; // eyes\n        uint8 z; // mouth\n        uint ethUSD;\n    }\n\n    asset[] public allTokens;\n    \n    // enumeration\n    // index to tokenId\n    uint256[] public allValidTokenIds;\n    event Log(string text);\n    // tokenId to Index\n    mapping(uint256 => uint256) private allValidTokenIndex;\n\n    constructor() public payable {\n\n        owner = msg.sender;\n        supportedInterfaces[0x01ffc9a7] = true; //ERC165\n        supportedInterfaces[0x80ac58cd] = true; //ERC721\n        supportedInterfaces[0x5b5e139f] = true; //ERC721Metadata\n        // urlRequestAddress = _urlRequestAddress;\n        // OAR = OraclizeAddrResolverI(0x6f485C8BF6fc43eA212E93BBF8ce046C7f1cb475);\n        update();\n    }\n\n    function __callback(bytes32 _myid, string memory _result) public {\n        require(msg.sender == oraclize_cbAddress());\n        emit Log(_result);\n        ETHUSD = parseInt(_result, 2);\n    }\n\n    function update() public payable {\n        oraclize_query(\"URL\",\"json(https://min-api.cryptocompare.com/data/price?fsym=ETH&tsyms=USD).USD\");\n    }\n\n    function supportsInterface(bytes4 interfaceID) external view returns (bool) {\n        return supportedInterfaces[interfaceID];\n    }\n\n    function balanceOf(address _owner) public view returns (uint256) {\n        return balances[_owner];\n    }\n\n    function ownerOf(uint256 _tokenId) public view returns (address) {\n        address addr_owner = tokenOwners[_tokenId];\n        require(addr_owner != address(0), \"Token is not available to use for some reasons.\");\n        return addr_owner;\n    }\n\n    function transferFrom(address _from, address _to, uint256 _tokenId) public {\n        address addr_owner = tokenOwners[_tokenId];\n        require(addr_owner == _from, \"_from is not the owner of the token\");\n        require(_to != address(0), \"_to is invalid address 0x0!\");\n        bool isOp = operators[addr_owner][msg.sender];\n        address addr_allowed = allowance[_tokenId];\n        require(addr_owner == msg.sender || addr_allowed == msg.sender || isOp, \"not allowed\");\n\n        tokenOwners[_tokenId] = _to;\n        balances[_from] = balances[_from].sub(1);\n        balances[_to] = balances[_to].add(1);\n\n        // reset approved address\n        if (allowance[_tokenId] != address(0)) {\n            delete allowance[_tokenId];\n        }\n\n        emit Transfer(_from, _to, _tokenId);\n    }\n\n    function _checkOnERC721Received(address from, address to, uint256 tokenId, bytes memory _data)\n            private returns (bool)\n        {\n            if (!to.isContract()) {\n                return true;\n            }\n            (bool success, bytes memory returndata) = to.call(abi.encodeWithSelector(\n                IERC721Receiver(to).onERC721Received.selector,\n                msg.sender,\n                from,\n                tokenId,\n                _data\n            ));\n            if (!success) {\n                revert(\"ERC721: transfer to non ERC721Receiver implementer\");\n            }\n            bytes4 retval = abi.decode(returndata, (bytes4));\n            return (retval == _ERC721_RECEIVED);\n        }\n\n    function safeTransferFrom(address _from, address _to, uint256 _tokenId, bytes memory _data) public {\n        require(_checkOnERC721Received(_from, _to, _tokenId, _data), \"ERC721 not receivable contract\");\n        transferFrom(_from, _to, _tokenId);\n    }\n\n    function safeTransferFrom(address _from, address _to, uint256 _tokenId) public {\n        safeTransferFrom(_from, _to, _tokenId, \"\");\n    }\n\n    function approve(address _approved, uint256 _tokenId) public {\n        address addr_owner = ownerOf(_tokenId);\n        bool isOp = operators[addr_owner][msg.sender];\n        require(addr_owner == msg.sender || isOp, \"not approved by owner\");\n\n        allowance[_tokenId] = _approved;\n\n        emit Approval(addr_owner, _approved, _tokenId);\n    }\n\n    function getApproved(uint256 _tokenId) public view returns (address) {\n        return allowance[_tokenId];\n    }\n\n    function setApprovalForAll(address _operator, bool _approved) public {\n        operators[msg.sender][_operator] = _approved;\n        emit ApprovalForAll(msg.sender, _operator, _approved);\n    }\n\n    function isApprovedForAll(address _owner, address _operator) public view returns (bool) {\n        return operators[_owner][_operator];\n    }\n\n    // non-ERC721 standard\n    function mint(uint8 _x, uint8 _y, uint8 _z) external payable {\n        \n        asset memory newAsset = asset(_x, _y, _z, ETHUSD);\n        uint tokenId = allTokens.push(newAsset) - 1;\n        tokenOwners[tokenId] = msg.sender;\n        balances[msg.sender] = balances[msg.sender].add(1);\n\n        // allValidTokenIds is yet to update, thus able to use as new index w/o decrement by 1\n        // Index to Token\n        allValidTokenIndex[tokenId] = allValidTokenIds.length;\n        allValidTokenIds.push(tokenId);\n        // requestTitle(tokenId);\n\n        // newly minted, thus specify to is null address(0)\n        emit Transfer(address(0), msg.sender, tokenId);\n    }\n\n    function burn(uint256 _tokenId) external {\n        address addr_owner = ownerOf(_tokenId);\n        require(addr_owner == msg.sender, \"msg.sender is not the owner of the token\");\n        \n        // nullify delegates to the tokens\n        if (allowance[_tokenId] != address(0)) {\n            delete allowance[_tokenId];\n        }\n\n        tokenOwners[_tokenId] = address(0);\n        balances[msg.sender] = balances[msg.sender].sub(1);\n\n        // re-indexing\n        removeInvalidToken(_tokenId);\n\n        emit Transfer(addr_owner, address(0), _tokenId);\n    }\n\n    function removeInvalidToken(uint256 _tokenId) private {\n        uint256 lastIndex = allValidTokenIds.length.sub(1);\n        uint256 lastTokenId = allValidTokenIds[lastIndex];\n        uint256 removeIndex = allValidTokenIndex[_tokenId];\n\n        // swap -> move last one to removable one\n        allValidTokenIds[removeIndex] = lastTokenId;\n        allValidTokenIndex[lastTokenId] = removeIndex;\n\n        allValidTokenIds.length = allValidTokenIds.length.sub(1);\n        allValidTokenIndex[_tokenId] = 0; // no meaning\n    }\n\n    // ERC721 Enumerable\n    function totalSupply() public view returns (uint) {\n        return allValidTokenIds.length;\n    }\n\n    function tokenOfOwnerByIndex(address owner, uint256 index) public view returns (uint256) {\n        require(index < balanceOf(owner), \"ERC721Enumerable: owner index out of bounds\");\n        // TODO: yet to implement\n        return 0;\n    }\n\n    function tokenByIndex(uint256 index) public view returns (uint) {\n        require(index < totalSupply());\n        return allValidTokenIds[index];\n    }\n\n    // ERC721 Metadata\n    function name() external view returns (string memory) {\n        return \"EMOJI TOKEN\";\n    }\n\n    function symbol() external view returns (string memory) {\n        return \"EMJ\";\n    }\n\n    function tokenURI(uint256 tokenId) external view returns (string memory) {\n        return Strings.toString(tokenId);\n    }\n\n    // function requestTitle(uint256 tokenId) public returns (string memory) {\n    //     UrlRequest urlRequest = UrlRequest(urlRequestAddress);\n    //     string memory temp = urlRequest.request();\n    //     title = string(abi.encodePacked(temp, \" \", \"tokenId:\", Strings.toString(tokenId)));\n    //     return title;\n    // }\n\n}",
  "sourcePath": "/media/jypthemiracle/9C33-6BBD/drizzle-dapp/contracts/DeedToken.sol",
  "compiler": {
    "name": "solc",
    "version": "0.5.17+commit.d19bba13.Emscripten.clang"
  },
  "schemaVersion": "3.4.4",
  "updatedAt": "2022-02-05T10:31:08.356Z",
  "networkType": "ethereum",
  "devdoc": {
    "methods": {}
  },
  "userdoc": {
    "methods": {}
  }
}