{
  "contractName": "DeedToken",
  "abi": [
    {
      "inputs": [
        {
          "internalType": "address",
          "name": "_urlRequestAddress",
          "type": "address"
        }
      ],
      "payable": false,
      "stateMutability": "nonpayable",
      "type": "constructor"
    },
    {
      "anonymous": false,
      "inputs": [
        {
          "indexed": true,
          "internalType": "address",
          "name": "owner",
          "type": "address"
        },
        {
          "indexed": true,
          "internalType": "address",
          "name": "approved",
          "type": "address"
        },
        {
          "indexed": true,
          "internalType": "uint256",
          "name": "tokenId",
          "type": "uint256"
        }
      ],
      "name": "Approval",
      "type": "event"
    },
    {
      "anonymous": false,
      "inputs": [
        {
          "indexed": true,
          "internalType": "address",
          "name": "owner",
          "type": "address"
        },
        {
          "indexed": true,
          "internalType": "address",
          "name": "operator",
          "type": "address"
        },
        {
          "indexed": false,
          "internalType": "bool",
          "name": "approved",
          "type": "bool"
        }
      ],
      "name": "ApprovalForAll",
      "type": "event"
    },
    {
      "anonymous": false,
      "inputs": [
        {
          "indexed": true,
          "internalType": "address",
          "name": "from",
          "type": "address"
        },
        {
          "indexed": true,
          "internalType": "address",
          "name": "to",
          "type": "address"
        },
        {
          "indexed": true,
          "internalType": "uint256",
          "name": "tokenId",
          "type": "uint256"
        }
      ],
      "name": "Transfer",
      "type": "event"
    },
    {
      "constant": true,
      "inputs": [
        {
          "internalType": "uint256",
          "name": "",
          "type": "uint256"
        }
      ],
      "name": "allTokens",
      "outputs": [
        {
          "internalType": "uint8",
          "name": "x",
          "type": "uint8"
        },
        {
          "internalType": "uint8",
          "name": "y",
          "type": "uint8"
        },
        {
          "internalType": "uint8",
          "name": "z",
          "type": "uint8"
        }
      ],
      "payable": false,
      "stateMutability": "view",
      "type": "function"
    },
    {
      "constant": true,
      "inputs": [
        {
          "internalType": "uint256",
          "name": "",
          "type": "uint256"
        }
      ],
      "name": "allValidTokenIds",
      "outputs": [
        {
          "internalType": "uint256",
          "name": "",
          "type": "uint256"
        }
      ],
      "payable": false,
      "stateMutability": "view",
      "type": "function"
    },
    {
      "constant": true,
      "inputs": [],
      "name": "owner",
      "outputs": [
        {
          "internalType": "address payable",
          "name": "",
          "type": "address"
        }
      ],
      "payable": false,
      "stateMutability": "view",
      "type": "function"
    },
    {
      "constant": true,
      "inputs": [],
      "name": "title",
      "outputs": [
        {
          "internalType": "string",
          "name": "",
          "type": "string"
        }
      ],
      "payable": false,
      "stateMutability": "view",
      "type": "function"
    },
    {
      "constant": true,
      "inputs": [
        {
          "internalType": "bytes4",
          "name": "interfaceID",
          "type": "bytes4"
        }
      ],
      "name": "supportsInterface",
      "outputs": [
        {
          "internalType": "bool",
          "name": "",
          "type": "bool"
        }
      ],
      "payable": false,
      "stateMutability": "view",
      "type": "function"
    },
    {
      "constant": true,
      "inputs": [
        {
          "internalType": "address",
          "name": "_owner",
          "type": "address"
        }
      ],
      "name": "balanceOf",
      "outputs": [
        {
          "internalType": "uint256",
          "name": "",
          "type": "uint256"
        }
      ],
      "payable": false,
      "stateMutability": "view",
      "type": "function"
    },
    {
      "constant": true,
      "inputs": [
        {
          "internalType": "uint256",
          "name": "_tokenId",
          "type": "uint256"
        }
      ],
      "name": "ownerOf",
      "outputs": [
        {
          "internalType": "address",
          "name": "",
          "type": "address"
        }
      ],
      "payable": false,
      "stateMutability": "view",
      "type": "function"
    },
    {
      "constant": false,
      "inputs": [
        {
          "internalType": "address",
          "name": "_from",
          "type": "address"
        },
        {
          "internalType": "address",
          "name": "_to",
          "type": "address"
        },
        {
          "internalType": "uint256",
          "name": "_tokenId",
          "type": "uint256"
        }
      ],
      "name": "transferFrom",
      "outputs": [],
      "payable": false,
      "stateMutability": "nonpayable",
      "type": "function"
    },
    {
      "constant": false,
      "inputs": [
        {
          "internalType": "address",
          "name": "_from",
          "type": "address"
        },
        {
          "internalType": "address",
          "name": "_to",
          "type": "address"
        },
        {
          "internalType": "uint256",
          "name": "_tokenId",
          "type": "uint256"
        }
      ],
      "name": "safeTransferFrom",
      "outputs": [],
      "payable": false,
      "stateMutability": "nonpayable",
      "type": "function"
    },
    {
      "constant": false,
      "inputs": [
        {
          "internalType": "address",
          "name": "_from",
          "type": "address"
        },
        {
          "internalType": "address",
          "name": "_to",
          "type": "address"
        },
        {
          "internalType": "uint256",
          "name": "_tokenId",
          "type": "uint256"
        },
        {
          "internalType": "bytes",
          "name": "_data",
          "type": "bytes"
        }
      ],
      "name": "safeTransferFrom",
      "outputs": [],
      "payable": false,
      "stateMutability": "nonpayable",
      "type": "function"
    },
    {
      "constant": false,
      "inputs": [
        {
          "internalType": "address",
          "name": "_approved",
          "type": "address"
        },
        {
          "internalType": "uint256",
          "name": "_tokenId",
          "type": "uint256"
        }
      ],
      "name": "approve",
      "outputs": [],
      "payable": false,
      "stateMutability": "nonpayable",
      "type": "function"
    },
    {
      "constant": true,
      "inputs": [
        {
          "internalType": "uint256",
          "name": "_tokenId",
          "type": "uint256"
        }
      ],
      "name": "getApproved",
      "outputs": [
        {
          "internalType": "address",
          "name": "",
          "type": "address"
        }
      ],
      "payable": false,
      "stateMutability": "view",
      "type": "function"
    },
    {
      "constant": false,
      "inputs": [
        {
          "internalType": "address",
          "name": "_operator",
          "type": "address"
        },
        {
          "internalType": "bool",
          "name": "_approved",
          "type": "bool"
        }
      ],
      "name": "setApprovalForAll",
      "outputs": [],
      "payable": false,
      "stateMutability": "nonpayable",
      "type": "function"
    },
    {
      "constant": true,
      "inputs": [
        {
          "internalType": "address",
          "name": "_owner",
          "type": "address"
        },
        {
          "internalType": "address",
          "name": "_operator",
          "type": "address"
        }
      ],
      "name": "isApprovedForAll",
      "outputs": [
        {
          "internalType": "bool",
          "name": "",
          "type": "bool"
        }
      ],
      "payable": false,
      "stateMutability": "view",
      "type": "function"
    },
    {
      "constant": false,
      "inputs": [
        {
          "internalType": "uint8",
          "name": "_x",
          "type": "uint8"
        },
        {
          "internalType": "uint8",
          "name": "_y",
          "type": "uint8"
        },
        {
          "internalType": "uint8",
          "name": "_z",
          "type": "uint8"
        }
      ],
      "name": "mint",
      "outputs": [],
      "payable": true,
      "stateMutability": "payable",
      "type": "function"
    },
    {
      "constant": false,
      "inputs": [
        {
          "internalType": "uint256",
          "name": "_tokenId",
          "type": "uint256"
        }
      ],
      "name": "burn",
      "outputs": [],
      "payable": false,
      "stateMutability": "nonpayable",
      "type": "function"
    },
    {
      "constant": true,
      "inputs": [],
      "name": "totalSupply",
      "outputs": [
        {
          "internalType": "uint256",
          "name": "",
          "type": "uint256"
        }
      ],
      "payable": false,
      "stateMutability": "view",
      "type": "function"
    },
    {
      "constant": true,
      "inputs": [
        {
          "internalType": "address",
          "name": "owner",
          "type": "address"
        },
        {
          "internalType": "uint256",
          "name": "index",
          "type": "uint256"
        }
      ],
      "name": "tokenOfOwnerByIndex",
      "outputs": [
        {
          "internalType": "uint256",
          "name": "",
          "type": "uint256"
        }
      ],
      "payable": false,
      "stateMutability": "view",
      "type": "function"
    },
    {
      "constant": true,
      "inputs": [
        {
          "internalType": "uint256",
          "name": "index",
          "type": "uint256"
        }
      ],
      "name": "tokenByIndex",
      "outputs": [
        {
          "internalType": "uint256",
          "name": "",
          "type": "uint256"
        }
      ],
      "payable": false,
      "stateMutability": "view",
      "type": "function"
    },
    {
      "constant": true,
      "inputs": [],
      "name": "name",
      "outputs": [
        {
          "internalType": "string",
          "name": "",
          "type": "string"
        }
      ],
      "payable": false,
      "stateMutability": "view",
      "type": "function"
    },
    {
      "constant": true,
      "inputs": [],
      "name": "symbol",
      "outputs": [
        {
          "internalType": "string",
          "name": "",
          "type": "string"
        }
      ],
      "payable": false,
      "stateMutability": "view",
      "type": "function"
    },
    {
      "constant": true,
      "inputs": [
        {
          "internalType": "uint256",
          "name": "tokenId",
          "type": "uint256"
        }
      ],
      "name": "tokenURI",
      "outputs": [
        {
          "internalType": "string",
          "name": "",
          "type": "string"
        }
      ],
      "payable": false,
      "stateMutability": "view",
      "type": "function"
    },
    {
      "constant": false,
      "inputs": [
        {
          "internalType": "uint256",
          "name": "tokenId",
          "type": "uint256"
        }
      ],
      "name": "requestTitle",
      "outputs": [
        {
          "internalType": "string",
          "name": "",
          "type": "string"
        }
      ],
      "payable": false,
      "stateMutability": "nonpayable",
      "type": "function"
    }
  ],
  "bytecode": "0x608060405234801561001057600080fd5b50604051612cc4380380612cc48339818101604052602081101561003357600080fd5b810190808051906020019092919050505033600160006101000a81548173ffffffffffffffffffffffffffffffffffffffff021916908373ffffffffffffffffffffffffffffffffffffffff1602179055506001600260006301ffc9a760e01b7bffffffffffffffffffffffffffffffffffffffffffffffffffffffff1916815260200190815260200160002060006101000a81548160ff0219169083151502179055506001600260006380ac58cd60e01b7bffffffffffffffffffffffffffffffffffffffffffffffffffffffff1916815260200190815260200160002060006101000a81548160ff021916908315150217905550600160026000635b5e139f60e01b7bffffffffffffffffffffffffffffffffffffffffffffffffffffffff1916815260200190815260200160002060006101000a81548160ff02191690831515021790555080600860006101000a81548173ffffffffffffffffffffffffffffffffffffffff021916908373ffffffffffffffffffffffffffffffffffffffff16021790555050612af8806101cc6000396000f3fe6080604052600436106101405760003560e01c80634f6ccce7116100b657806395d89b411161006f57806395d89b4114610870578063a22cb46514610900578063b88d4fde1461095d578063c87b56dd14610a6f578063e6f12af914610b23578063e985e9c514610b6e57610140565b80634f6ccce71461062c578063634282af1461067b5780636352211e146106ea578063700319c51461076557806370a08231146107b45780638da5cb5b1461081957610140565b806323b872dd1161010857806323b872dd146103485780632e9acfd2146103c35780632f745c591461047757806342842e0e146104e657806342966c68146105615780634a79d50c1461059c57610140565b806301ffc9a71461014557806306fdde03146101b7578063081812fc14610247578063095ea7b3146102c257806318160ddd1461031d575b600080fd5b34801561015157600080fd5b5061019d6004803603602081101561016857600080fd5b8101908080357bffffffffffffffffffffffffffffffffffffffffffffffffffffffff19169060200190929190505050610bf7565b604051808215151515815260200191505060405180910390f35b3480156101c357600080fd5b506101cc610c5f565b6040518080602001828103825283818151815260200191508051906020019080838360005b8381101561020c5780820151818401526020810190506101f1565b50505050905090810190601f1680156102395780820380516001836020036101000a031916815260200191505b509250505060405180910390f35b34801561025357600080fd5b506102806004803603602081101561026a57600080fd5b8101908080359060200190929190505050610c9c565b604051808273ffffffffffffffffffffffffffffffffffffffff1673ffffffffffffffffffffffffffffffffffffffff16815260200191505060405180910390f35b3480156102ce57600080fd5b5061031b600480360360408110156102e557600080fd5b81019080803573ffffffffffffffffffffffffffffffffffffffff16906020019092919080359060200190929190505050610cd9565b005b34801561032957600080fd5b50610332610ed0565b6040518082815260200191505060405180910390f35b34801561035457600080fd5b506103c16004803603606081101561036b57600080fd5b81019080803573ffffffffffffffffffffffffffffffffffffffff169060200190929190803573ffffffffffffffffffffffffffffffffffffffff16906020019092919080359060200190929190505050610edd565b005b3480156103cf57600080fd5b506103fc600480360360208110156103e657600080fd5b8101908080359060200190929190505050611460565b6040518080602001828103825283818151815260200191508051906020019080838360005b8381101561043c578082015181840152602081019050610421565b50505050905090810190601f1680156104695780820380516001836020036101000a031916815260200191505b509250505060405180910390f35b34801561048357600080fd5b506104d06004803603604081101561049a57600080fd5b81019080803573ffffffffffffffffffffffffffffffffffffffff1690602001909291908035906020019092919050505061179e565b6040518082815260200191505060405180910390f35b3480156104f257600080fd5b5061055f6004803603606081101561050957600080fd5b81019080803573ffffffffffffffffffffffffffffffffffffffff169060200190929190803573ffffffffffffffffffffffffffffffffffffffff1690602001909291908035906020019092919050505061180a565b005b34801561056d57600080fd5b5061059a6004803603602081101561058457600080fd5b810190808035906020019092919050505061182a565b005b3480156105a857600080fd5b506105b1611aab565b6040518080602001828103825283818151815260200191508051906020019080838360005b838110156105f15780820151818401526020810190506105d6565b50505050905090810190601f16801561061e5780820380516001836020036101000a031916815260200191505b509250505060405180910390f35b34801561063857600080fd5b506106656004803603602081101561064f57600080fd5b8101908080359060200190929190505050611b49565b6040518082815260200191505060405180910390f35b34801561068757600080fd5b506106b46004803603602081101561069e57600080fd5b8101908080359060200190929190505050611b7d565b604051808460ff1660ff1681526020018360ff1660ff1681526020018260ff1660ff168152602001935050505060405180910390f35b3480156106f657600080fd5b506107236004803603602081101561070d57600080fd5b8101908080359060200190929190505050611bd7565b604051808273ffffffffffffffffffffffffffffffffffffffff1673ffffffffffffffffffffffffffffffffffffffff16815260200191505060405180910390f35b34801561077157600080fd5b5061079e6004803603602081101561078857600080fd5b8101908080359060200190929190505050611c9f565b6040518082815260200191505060405180910390f35b3480156107c057600080fd5b50610803600480360360208110156107d757600080fd5b81019080803573ffffffffffffffffffffffffffffffffffffffff169060200190929190505050611cc0565b6040518082815260200191505060405180910390f35b34801561082557600080fd5b5061082e611d09565b604051808273ffffffffffffffffffffffffffffffffffffffff1673ffffffffffffffffffffffffffffffffffffffff16815260200191505060405180910390f35b34801561087c57600080fd5b50610885611d2f565b6040518080602001828103825283818151815260200191508051906020019080838360005b838110156108c55780820151818401526020810190506108aa565b50505050905090810190601f1680156108f25780820380516001836020036101000a031916815260200191505b509250505060405180910390f35b34801561090c57600080fd5b5061095b6004803603604081101561092357600080fd5b81019080803573ffffffffffffffffffffffffffffffffffffffff169060200190929190803515159060200190929190505050611d6c565b005b34801561096957600080fd5b50610a6d6004803603608081101561098057600080fd5b81019080803573ffffffffffffffffffffffffffffffffffffffff169060200190929190803573ffffffffffffffffffffffffffffffffffffffff16906020019092919080359060200190929190803590602001906401000000008111156109e757600080fd5b8201836020820111156109f957600080fd5b80359060200191846001830284011164010000000083111715610a1b57600080fd5b91908080601f016020809104026020016040519081016040528093929190818152602001838380828437600081840152601f19601f820116905080830192505050505050509192919290505050611e6d565b005b348015610a7b57600080fd5b50610aa860048036036020811015610a9257600080fd5b8101908080359060200190929190505050611efc565b6040518080602001828103825283818151815260200191508051906020019080838360005b83811015610ae8578082015181840152602081019050610acd565b50505050905090810190601f168015610b155780820380516001836020036101000a031916815260200191505b509250505060405180910390f35b610b6c60048036036060811015610b3957600080fd5b81019080803560ff169060200190929190803560ff169060200190929190803560ff169060200190929190505050611f0e565b005b348015610b7a57600080fd5b50610bdd60048036036040811015610b9157600080fd5b81019080803573ffffffffffffffffffffffffffffffffffffffff169060200190929190803573ffffffffffffffffffffffffffffffffffffffff169060200190929190505050612170565b604051808215151515815260200191505060405180910390f35b600060026000837bffffffffffffffffffffffffffffffffffffffffffffffffffffffff19167bffffffffffffffffffffffffffffffffffffffffffffffffffffffff1916815260200190815260200160002060009054906101000a900460ff169050919050565b60606040518060400160405280600b81526020017f454d4f4a4920544f4b454e000000000000000000000000000000000000000000815250905090565b60006005600083815260200190815260200160002060009054906101000a900473ffffffffffffffffffffffffffffffffffffffff169050919050565b6000610ce482611bd7565b90506000600660008373ffffffffffffffffffffffffffffffffffffffff1673ffffffffffffffffffffffffffffffffffffffff16815260200190815260200160002060003373ffffffffffffffffffffffffffffffffffffffff1673ffffffffffffffffffffffffffffffffffffffff16815260200190815260200160002060009054906101000a900460ff1690503373ffffffffffffffffffffffffffffffffffffffff168273ffffffffffffffffffffffffffffffffffffffff161480610dab5750805b610e1d576040517f08c379a00000000000000000000000000000000000000000000000000000000081526004018080602001828103825260158152602001807f6e6f7420617070726f766564206279206f776e6572000000000000000000000081525060200191505060405180910390fd5b836005600085815260200190815260200160002060006101000a81548173ffffffffffffffffffffffffffffffffffffffff021916908373ffffffffffffffffffffffffffffffffffffffff160217905550828473ffffffffffffffffffffffffffffffffffffffff168373ffffffffffffffffffffffffffffffffffffffff167f8c5be1e5ebec7d5bd14f71427d1e84f3dd0314c0f7b2291e5b200ac8c7c3b92560405160405180910390a450505050565b6000600a80549050905090565b60006003600083815260200190815260200160002060009054906101000a900473ffffffffffffffffffffffffffffffffffffffff1690508373ffffffffffffffffffffffffffffffffffffffff168173ffffffffffffffffffffffffffffffffffffffff1614610f99576040517f08c379a0000000000000000000000000000000000000000000000000000000008152600401808060200182810382526023815260200180612aa16023913960400191505060405180910390fd5b600073ffffffffffffffffffffffffffffffffffffffff168373ffffffffffffffffffffffffffffffffffffffff16141561103c576040517f08c379a000000000000000000000000000000000000000000000000000000000815260040180806020018281038252601b8152602001807f5f746f20697320696e76616c696420616464726573732030783021000000000081525060200191505060405180910390fd5b6000600660008373ffffffffffffffffffffffffffffffffffffffff1673ffffffffffffffffffffffffffffffffffffffff16815260200190815260200160002060003373ffffffffffffffffffffffffffffffffffffffff1673ffffffffffffffffffffffffffffffffffffffff16815260200190815260200160002060009054906101000a900460ff16905060006005600085815260200190815260200160002060009054906101000a900473ffffffffffffffffffffffffffffffffffffffff1690503373ffffffffffffffffffffffffffffffffffffffff168373ffffffffffffffffffffffffffffffffffffffff16148061116757503373ffffffffffffffffffffffffffffffffffffffff168173ffffffffffffffffffffffffffffffffffffffff16145b8061116f5750815b6111e1576040517f08c379a000000000000000000000000000000000000000000000000000000000815260040180806020018281038252600b8152602001807f6e6f7420616c6c6f77656400000000000000000000000000000000000000000081525060200191505060405180910390fd5b846003600086815260200190815260200160002060006101000a81548173ffffffffffffffffffffffffffffffffffffffff021916908373ffffffffffffffffffffffffffffffffffffffff1602179055506112866001600460008973ffffffffffffffffffffffffffffffffffffffff1673ffffffffffffffffffffffffffffffffffffffff1681526020019081526020016000205461220490919063ffffffff16565b600460008873ffffffffffffffffffffffffffffffffffffffff1673ffffffffffffffffffffffffffffffffffffffff1681526020019081526020016000208190555061131c6001600460008873ffffffffffffffffffffffffffffffffffffffff1673ffffffffffffffffffffffffffffffffffffffff1681526020019081526020016000205461224e90919063ffffffff16565b600460008773ffffffffffffffffffffffffffffffffffffffff1673ffffffffffffffffffffffffffffffffffffffff16815260200190815260200160002081905550600073ffffffffffffffffffffffffffffffffffffffff166005600086815260200190815260200160002060009054906101000a900473ffffffffffffffffffffffffffffffffffffffff1673ffffffffffffffffffffffffffffffffffffffff16146113fd576005600085815260200190815260200160002060006101000a81549073ffffffffffffffffffffffffffffffffffffffff02191690555b838573ffffffffffffffffffffffffffffffffffffffff168773ffffffffffffffffffffffffffffffffffffffff167fddf252ad1be2c89b69c2b068fc378daa952ba7f163c4a11628f55a4df523b3ef60405160405180910390a4505050505050565b60606000600860009054906101000a900473ffffffffffffffffffffffffffffffffffffffff16905060608173ffffffffffffffffffffffffffffffffffffffff1663338cdca16040518163ffffffff1660e01b8152600401600060405180830381600087803b1580156114d357600080fd5b505af11580156114e7573d6000803e3d6000fd5b505050506040513d6000823e3d601f19601f82011682018060405250602081101561151157600080fd5b810190808051604051939291908464010000000082111561153157600080fd5b8382019150602082018581111561154757600080fd5b825186600182028301116401000000008211171561156457600080fd5b8083526020830192505050908051906020019080838360005b8381101561159857808201518184015260208101905061157d565b50505050905090810190601f1680156115c55780820380516001836020036101000a031916815260200191505b506040525050509050806115d8856122d6565b6040516020018083805190602001908083835b6020831061160e57805182526020820191506020810190506020830392506115eb565b6001836020036101000a038019825116818451168082178552505050505050905001807f2000000000000000000000000000000000000000000000000000000000000000815250600101807f746f6b656e49643a00000000000000000000000000000000000000000000000081525060080182805190602001908083835b602083106116af578051825260208201915060208101905060208303925061168c565b6001836020036101000a03801982511681845116808217855250505050505090500192505050604051602081830303815290604052600090805190602001906116f99291906128f1565b5060008054600181600116156101000203166002900480601f0160208091040260200160405190810160405280929190818152602001828054600181600116156101000203166002900480156117905780601f1061176557610100808354040283529160200191611790565b820191906000526020600020905b81548152906001019060200180831161177357829003601f168201915b505050505092505050919050565b60006117a983611cc0565b8210611800576040517f08c379a000000000000000000000000000000000000000000000000000000000815260040180806020018281038252602b8152602001806129ed602b913960400191505060405180910390fd5b6000905092915050565b61182583838360405180602001604052806000815250611e6d565b505050565b600061183582611bd7565b90503373ffffffffffffffffffffffffffffffffffffffff168173ffffffffffffffffffffffffffffffffffffffff16146118bb576040517f08c379a0000000000000000000000000000000000000000000000000000000008152600401808060200182810382526028815260200180612a796028913960400191505060405180910390fd5b600073ffffffffffffffffffffffffffffffffffffffff166005600084815260200190815260200160002060009054906101000a900473ffffffffffffffffffffffffffffffffffffffff1673ffffffffffffffffffffffffffffffffffffffff1614611959576005600083815260200190815260200160002060006101000a81549073ffffffffffffffffffffffffffffffffffffffff02191690555b60006003600084815260200190815260200160002060006101000a81548173ffffffffffffffffffffffffffffffffffffffff021916908373ffffffffffffffffffffffffffffffffffffffff1602179055506119ff6001600460003373ffffffffffffffffffffffffffffffffffffffff1673ffffffffffffffffffffffffffffffffffffffff1681526020019081526020016000205461220490919063ffffffff16565b600460003373ffffffffffffffffffffffffffffffffffffffff1673ffffffffffffffffffffffffffffffffffffffff16815260200190815260200160002081905550611a4b826123f9565b81600073ffffffffffffffffffffffffffffffffffffffff168273ffffffffffffffffffffffffffffffffffffffff167fddf252ad1be2c89b69c2b068fc378daa952ba7f163c4a11628f55a4df523b3ef60405160405180910390a45050565b60008054600181600116156101000203166002900480601f016020809104026020016040519081016040528092919081815260200182805460018160011615610100020316600290048015611b415780601f10611b1657610100808354040283529160200191611b41565b820191906000526020600020905b815481529060010190602001808311611b2457829003601f168201915b505050505081565b6000611b53610ed0565b8210611b5e57600080fd5b600a8281548110611b6b57fe5b90600052602060002001549050919050565b60098181548110611b8a57fe5b906000526020600020016000915090508060000160009054906101000a900460ff16908060000160019054906101000a900460ff16908060000160029054906101000a900460ff16905083565b6000806003600084815260200190815260200160002060009054906101000a900473ffffffffffffffffffffffffffffffffffffffff169050600073ffffffffffffffffffffffffffffffffffffffff168173ffffffffffffffffffffffffffffffffffffffff161415611c96576040517f08c379a000000000000000000000000000000000000000000000000000000000815260040180806020018281038252602f815260200180612a4a602f913960400191505060405180910390fd5b80915050919050565b600a8181548110611cac57fe5b906000526020600020016000915090505481565b6000600460008373ffffffffffffffffffffffffffffffffffffffff1673ffffffffffffffffffffffffffffffffffffffff168152602001908152602001600020549050919050565b600160009054906101000a900473ffffffffffffffffffffffffffffffffffffffff1681565b60606040518060400160405280600381526020017f454d4a0000000000000000000000000000000000000000000000000000000000815250905090565b80600660003373ffffffffffffffffffffffffffffffffffffffff1673ffffffffffffffffffffffffffffffffffffffff16815260200190815260200160002060008473ffffffffffffffffffffffffffffffffffffffff1673ffffffffffffffffffffffffffffffffffffffff16815260200190815260200160002060006101000a81548160ff0219169083151502179055508173ffffffffffffffffffffffffffffffffffffffff163373ffffffffffffffffffffffffffffffffffffffff167f17307eab39ab6107e8899845ad3d59bd9653f200f220920489ca2b5937696c3183604051808215151515815260200191505060405180910390a35050565b611e79848484846124c4565b611eeb576040517f08c379a000000000000000000000000000000000000000000000000000000000815260040180806020018281038252601e8152602001807f455243373231206e6f742072656365697661626c6520636f6e7472616374000081525060200191505060405180910390fd5b611ef6848484610edd565b50505050565b6060611f07826122d6565b9050919050565b611f16612971565b60405180606001604052808560ff1681526020018460ff1681526020018360ff1681525090506000600160098390806001815401808255809150509060018203906000526020600020016000909192909190915060008201518160000160006101000a81548160ff021916908360ff16021790555060208201518160000160016101000a81548160ff021916908360ff16021790555060408201518160000160026101000a81548160ff021916908360ff1602179055505050039050336003600083815260200190815260200160002060006101000a81548173ffffffffffffffffffffffffffffffffffffffff021916908373ffffffffffffffffffffffffffffffffffffffff1602179055506120776001600460003373ffffffffffffffffffffffffffffffffffffffff1673ffffffffffffffffffffffffffffffffffffffff1681526020019081526020016000205461224e90919063ffffffff16565b600460003373ffffffffffffffffffffffffffffffffffffffff1673ffffffffffffffffffffffffffffffffffffffff16815260200190815260200160002081905550600a80549050600b600083815260200190815260200160002081905550600a81908060018154018082558091505090600182039060005260206000200160009091929091909150555061210c81611460565b50803373ffffffffffffffffffffffffffffffffffffffff16600073ffffffffffffffffffffffffffffffffffffffff167fddf252ad1be2c89b69c2b068fc378daa952ba7f163c4a11628f55a4df523b3ef60405160405180910390a45050505050565b6000600660008473ffffffffffffffffffffffffffffffffffffffff1673ffffffffffffffffffffffffffffffffffffffff16815260200190815260200160002060008373ffffffffffffffffffffffffffffffffffffffff1673ffffffffffffffffffffffffffffffffffffffff16815260200190815260200160002060009054906101000a900460ff16905092915050565b600061224683836040518060400160405280601e81526020017f536166654d6174683a207375627472616374696f6e206f766572666c6f7700008152506127e6565b905092915050565b6000808284019050838110156122cc576040517f08c379a000000000000000000000000000000000000000000000000000000000815260040180806020018281038252601b8152602001807f536166654d6174683a206164646974696f6e206f766572666c6f77000000000081525060200191505060405180910390fd5b8091505092915050565b6060600082141561231e576040518060400160405280600181526020017f300000000000000000000000000000000000000000000000000000000000000081525090506123f4565b600082905060005b60008214612348578080600101915050600a828161234057fe5b049150612326565b6060816040519080825280601f01601f19166020018201604052801561237d5781602001600182028038833980820191505090505b5090505b600085146123ed57600182039150600a858161239957fe5b0660300160f81b8183815181106123ac57fe5b60200101907effffffffffffffffffffffffffffffffffffffffffffffffffffffffffffff1916908160001a905350600a85816123e557fe5b049450612381565b8093505050505b919050565b60006124146001600a8054905061220490919063ffffffff16565b90506000600a828154811061242557fe5b906000526020600020015490506000600b600085815260200190815260200160002054905081600a828154811061245857fe5b906000526020600020018190555080600b6000848152602001908152602001600020819055506124976001600a8054905061220490919063ffffffff16565b600a816124a4919061299b565b506000600b60008681526020019081526020016000208190555050505050565b60006124e58473ffffffffffffffffffffffffffffffffffffffff166128a6565b6124f257600190506127de565b600060608573ffffffffffffffffffffffffffffffffffffffff168673ffffffffffffffffffffffffffffffffffffffff1663150b7a02905060e01b33898888604051602401808573ffffffffffffffffffffffffffffffffffffffff1673ffffffffffffffffffffffffffffffffffffffff1681526020018473ffffffffffffffffffffffffffffffffffffffff1673ffffffffffffffffffffffffffffffffffffffff16815260200183815260200180602001828103825283818151815260200191508051906020019080838360005b838110156125df5780820151818401526020810190506125c4565b50505050905090810190601f16801561260c5780820380516001836020036101000a031916815260200191505b5095505050505050604051602081830303815290604052907bffffffffffffffffffffffffffffffffffffffffffffffffffffffff19166020820180517bffffffffffffffffffffffffffffffffffffffffffffffffffffffff83818316178352505050506040518082805190602001908083835b602083106126a45780518252602082019150602081019050602083039250612681565b6001836020036101000a0380198251168184511680821785525050505050509050019150506000604051808303816000865af19150503d8060008114612706576040519150601f19603f3d011682016040523d82523d6000602084013e61270b565b606091505b509150915081612766576040517f08c379a0000000000000000000000000000000000000000000000000000000008152600401808060200182810382526032815260200180612a186032913960400191505060405180910390fd5b600081806020019051602081101561277d57600080fd5b8101908080519060200190929190505050905063150b7a0260e01b7bffffffffffffffffffffffffffffffffffffffffffffffffffffffff1916817bffffffffffffffffffffffffffffffffffffffffffffffffffffffff19161493505050505b949350505050565b6000838311158290612893576040517f08c379a00000000000000000000000000000000000000000000000000000000081526004018080602001828103825283818151815260200191508051906020019080838360005b8381101561285857808201518184015260208101905061283d565b50505050905090810190601f1680156128855780820380516001836020036101000a031916815260200191505b509250505060405180910390fd5b5060008385039050809150509392505050565b60008060007fc5d2460186f7233c927e7db2dcc703c0e500b653ca82273b7bfad8045d85a47060001b9050833f91508082141580156128e857506000801b8214155b92505050919050565b828054600181600116156101000203166002900490600052602060002090601f016020900481019282601f1061293257805160ff1916838001178555612960565b82800160010185558215612960579182015b8281111561295f578251825591602001919060010190612944565b5b50905061296d91906129c7565b5090565b6040518060600160405280600060ff168152602001600060ff168152602001600060ff1681525090565b8154818355818111156129c2578183600052602060002091820191016129c191906129c7565b5b505050565b6129e991905b808211156129e55760008160009055506001016129cd565b5090565b9056fe455243373231456e756d657261626c653a206f776e657220696e646578206f7574206f6620626f756e64734552433732313a207472616e7366657220746f206e6f6e20455243373231526563656976657220696d706c656d656e746572546f6b656e206973206e6f7420617661696c61626c6520746f2075736520666f7220736f6d6520726561736f6e732e6d73672e73656e646572206973206e6f7420746865206f776e6572206f662074686520746f6b656e5f66726f6d206973206e6f7420746865206f776e6572206f662074686520746f6b656ea265627a7a72315820f9d55e615c482e19c4fa2071d33d11c2e66d7d0b1dd1bc0534d241a2c42dce6f64736f6c63430005110032",
  "source": "pragma solidity ^0.5.0;\n\nimport \"@openzeppelin/contracts/token/ERC721/IERC721Full.sol\";\nimport \"@openzeppelin/contracts/math/SafeMath.sol\";\nimport \"@openzeppelin/contracts/utils/Address.sol\";\nimport \"@openzeppelin/contracts/token/ERC721/IERC721Receiver.sol\";\nimport \"@openzeppelin/contracts/utils/Strings.sol\";\nimport \"./UrlRequest.sol\";\n\ncontract DeedToken is IERC721Full {\n    \n    using SafeMath for uint256;\n    using Address for address;\n    \n    string public title;\n\n    bytes4 private constant _ERC721_RECEIVED = 0x150b7a02;\n\n    address payable public owner;\n    mapping(bytes4 => bool) supportedInterfaces;\n    \n    mapping(uint256 => address) tokenOwners;\n    mapping(address => uint256) balances;\n    mapping(uint256 => address) allowance;\n    // delegation available? middleman specified required\n    mapping(address => mapping(address => bool)) operators;\n\n    mapping(uint256 => string) tokenURIs;\n\n    address urlRequestAddress;\n\n    struct asset {\n        uint8 x; // face\n        uint8 y; // eyes\n        uint8 z; // mouth\n    }\n\n    asset[] public allTokens;\n    \n    // enumeration\n    // index to tokenId\n    uint256[] public allValidTokenIds;\n    // tokenId to Index\n    mapping(uint256 => uint256) private allValidTokenIndex;\n\n    constructor(address _urlRequestAddress) public {\n\n        owner = msg.sender;\n        supportedInterfaces[0x01ffc9a7] = true; //ERC165\n        supportedInterfaces[0x80ac58cd] = true; //ERC721\n        supportedInterfaces[0x5b5e139f] = true; //ERC721Metadata\n        urlRequestAddress = _urlRequestAddress;\n    }\n\n    function supportsInterface(bytes4 interfaceID) external view returns (bool) {\n        return supportedInterfaces[interfaceID];\n    }\n\n    function balanceOf(address _owner) public view returns (uint256) {\n        return balances[_owner];\n    }\n\n    function ownerOf(uint256 _tokenId) public view returns (address) {\n        address addr_owner = tokenOwners[_tokenId];\n        require(addr_owner != address(0), \"Token is not available to use for some reasons.\");\n        return addr_owner;\n    }\n\n    function transferFrom(address _from, address _to, uint256 _tokenId) public {\n        address addr_owner = tokenOwners[_tokenId];\n        require(addr_owner == _from, \"_from is not the owner of the token\");\n        require(_to != address(0), \"_to is invalid address 0x0!\");\n        bool isOp = operators[addr_owner][msg.sender];\n        address addr_allowed = allowance[_tokenId];\n        require(addr_owner == msg.sender || addr_allowed == msg.sender || isOp, \"not allowed\");\n\n        tokenOwners[_tokenId] = _to;\n        balances[_from] = balances[_from].sub(1);\n        balances[_to] = balances[_to].add(1);\n\n        // reset approved address\n        if (allowance[_tokenId] != address(0)) {\n            delete allowance[_tokenId];\n        }\n\n        emit Transfer(_from, _to, _tokenId);\n    }\n\n    function _checkOnERC721Received(address from, address to, uint256 tokenId, bytes memory _data)\n            private returns (bool)\n        {\n            if (!to.isContract()) {\n                return true;\n            }\n            (bool success, bytes memory returndata) = to.call(abi.encodeWithSelector(\n                IERC721Receiver(to).onERC721Received.selector,\n                msg.sender,\n                from,\n                tokenId,\n                _data\n            ));\n            if (!success) {\n                revert(\"ERC721: transfer to non ERC721Receiver implementer\");\n            }\n            bytes4 retval = abi.decode(returndata, (bytes4));\n            return (retval == _ERC721_RECEIVED);\n        }\n\n    function safeTransferFrom(address _from, address _to, uint256 _tokenId, bytes memory _data) public {\n        require(_checkOnERC721Received(_from, _to, _tokenId, _data), \"ERC721 not receivable contract\");\n        transferFrom(_from, _to, _tokenId);\n    }\n\n    function safeTransferFrom(address _from, address _to, uint256 _tokenId) public {\n        safeTransferFrom(_from, _to, _tokenId, \"\");\n    }\n\n    function approve(address _approved, uint256 _tokenId) public {\n        address addr_owner = ownerOf(_tokenId);\n        bool isOp = operators[addr_owner][msg.sender];\n        require(addr_owner == msg.sender || isOp, \"not approved by owner\");\n\n        allowance[_tokenId] = _approved;\n\n        emit Approval(addr_owner, _approved, _tokenId);\n    }\n\n    function getApproved(uint256 _tokenId) public view returns (address) {\n        return allowance[_tokenId];\n    }\n\n    function setApprovalForAll(address _operator, bool _approved) public {\n        operators[msg.sender][_operator] = _approved;\n        emit ApprovalForAll(msg.sender, _operator, _approved);\n    }\n\n    function isApprovedForAll(address _owner, address _operator) public view returns (bool) {\n        return operators[_owner][_operator];\n    }\n\n    // non-ERC721 standard\n    function mint(uint8 _x, uint8 _y, uint8 _z) external payable {\n        \n        asset memory newAsset = asset(_x, _y, _z);\n        uint tokenId = allTokens.push(newAsset) - 1;\n        tokenOwners[tokenId] = msg.sender;\n        balances[msg.sender] = balances[msg.sender].add(1);\n\n        // allValidTokenIds is yet to update, thus able to use as new index w/o decrement by 1\n        // Index to Token\n        allValidTokenIndex[tokenId] = allValidTokenIds.length;\n        allValidTokenIds.push(tokenId);\n        requestTitle(tokenId);\n\n        // newly minted, thus specify to is null address(0)\n        emit Transfer(address(0), msg.sender, tokenId);\n    }\n\n    function burn(uint256 _tokenId) external {\n        address addr_owner = ownerOf(_tokenId);\n        require(addr_owner == msg.sender, \"msg.sender is not the owner of the token\");\n        \n        // nullify delegates to the tokens\n        if (allowance[_tokenId] != address(0)) {\n            delete allowance[_tokenId];\n        }\n\n        tokenOwners[_tokenId] = address(0);\n        balances[msg.sender] = balances[msg.sender].sub(1);\n\n        // re-indexing\n        removeInvalidToken(_tokenId);\n\n        emit Transfer(addr_owner, address(0), _tokenId);\n    }\n\n    function removeInvalidToken(uint256 _tokenId) private {\n        uint256 lastIndex = allValidTokenIds.length.sub(1);\n        uint256 lastTokenId = allValidTokenIds[lastIndex];\n        uint256 removeIndex = allValidTokenIndex[_tokenId];\n\n        // swap -> move last one to removable one\n        allValidTokenIds[removeIndex] = lastTokenId;\n        allValidTokenIndex[lastTokenId] = removeIndex;\n\n        allValidTokenIds.length = allValidTokenIds.length.sub(1);\n        allValidTokenIndex[_tokenId] = 0; // no meaning\n    }\n\n    // ERC721 Enumerable\n    function totalSupply() public view returns (uint) {\n        return allValidTokenIds.length;\n    }\n\n    function tokenOfOwnerByIndex(address owner, uint256 index) public view returns (uint256) {\n        require(index < balanceOf(owner), \"ERC721Enumerable: owner index out of bounds\");\n        // TODO: yet to implement\n        return 0;\n    }\n\n    function tokenByIndex(uint256 index) public view returns (uint) {\n        require(index < totalSupply());\n        return allValidTokenIds[index];\n    }\n\n    // ERC721 Metadata\n    function name() external view returns (string memory) {\n        return \"EMOJI TOKEN\";\n    }\n\n    function symbol() external view returns (string memory) {\n        return \"EMJ\";\n    }\n\n    function tokenURI(uint256 tokenId) external view returns (string memory) {\n        return Strings.toString(tokenId);\n    }\n\n    function requestTitle(uint256 tokenId) public returns (string memory) {\n        UrlRequest urlRequest = UrlRequest(urlRequestAddress);\n        string memory temp = urlRequest.request();\n        title = string(abi.encodePacked(temp, \" \", \"tokenId:\", Strings.toString(tokenId)));\n        return title;\n    }\n\n}\n",
  "sourcePath": "/media/jypthemiracle/9C33-6BBD/drizzle-dapp/contracts/DeedToken.sol",
  "compiler": {
    "name": "solc",
    "version": "0.5.17+commit.d19bba13.Emscripten.clang"
  },
  "schemaVersion": "3.4.4",
  "updatedAt": "2022-02-01T10:48:01.984Z",
  "networkType": "ethereum",
  "devdoc": {
    "methods": {}
  },
  "userdoc": {
    "methods": {}
  }
}